{
	"contracts/RiseIn.sol": {
		"ProposalContract": {
			"abi": [
				{
					"inputs": [],
					"stateMutability": "nonpayable",
					"type": "constructor"
				},
				{
					"inputs": [
						{
							"internalType": "string",
							"name": "_description",
							"type": "string"
						},
						{
							"internalType": "uint256",
							"name": "_total_vote_to_end",
							"type": "uint256"
						}
					],
					"name": "create",
					"outputs": [],
					"stateMutability": "nonpayable",
					"type": "function"
				},
				{
					"inputs": [
						{
							"internalType": "address",
							"name": "_address",
							"type": "address"
						}
					],
					"name": "isVoted",
					"outputs": [
						{
							"internalType": "bool",
							"name": "",
							"type": "bool"
						}
					],
					"stateMutability": "view",
					"type": "function"
				},
				{
					"inputs": [
						{
							"internalType": "address",
							"name": "new_owner",
							"type": "address"
						}
					],
					"name": "setOwner",
					"outputs": [],
					"stateMutability": "nonpayable",
					"type": "function"
				},
				{
					"inputs": [
						{
							"internalType": "uint8",
							"name": "choice",
							"type": "uint8"
						}
					],
					"name": "vote",
					"outputs": [],
					"stateMutability": "nonpayable",
					"type": "function"
				}
			],
			"devdoc": {
				"kind": "dev",
				"methods": {},
				"version": 1
			},
			"evm": {
				"assembly": "    /* \"contracts/RiseIn.sol\":111:3742  contract ProposalContract {... */\n  mstore(0x40, 0x80)\n    /* \"contracts/RiseIn.sol\":990:1081  constructor() {... */\n  callvalue\n  dup1\n  iszero\n  tag_1\n  jumpi\n  0x00\n  dup1\n  revert\ntag_1:\n  pop\n    /* \"contracts/RiseIn.sol\":1022:1032  msg.sender */\n  caller\n    /* \"contracts/RiseIn.sol\":1014:1019  owner */\n  0x00\n  dup1\n    /* \"contracts/RiseIn.sol\":1014:1032  owner = msg.sender */\n  0x0100\n  exp\n  dup2\n  sload\n  dup2\n  0xffffffffffffffffffffffffffffffffffffffff\n  mul\n  not\n  and\n  swap1\n  dup4\n  0xffffffffffffffffffffffffffffffffffffffff\n  and\n  mul\n  or\n  swap1\n  sstore\n  pop\n    /* \"contracts/RiseIn.sol\":1042:1057  voted_addresses */\n  0x03\n    /* \"contracts/RiseIn.sol\":1063:1073  msg.sender */\n  caller\n    /* \"contracts/RiseIn.sol\":1042:1074  voted_addresses.push(msg.sender) */\n  swap1\n  dup1\n  0x01\n  dup2\n  sload\n  add\n  dup1\n  dup3\n  sstore\n  dup1\n  swap2\n  pop\n  pop\n  0x01\n  swap1\n  sub\n  swap1\n  0x00\n  mstore\n  keccak256(0x00, 0x20)\n  add\n  0x00\n  swap1\n  swap2\n  swap1\n  swap2\n  swap1\n  swap2\n  0x0100\n  exp\n  dup2\n  sload\n  dup2\n  0xffffffffffffffffffffffffffffffffffffffff\n  mul\n  not\n  and\n  swap1\n  dup4\n  0xffffffffffffffffffffffffffffffffffffffff\n  and\n  mul\n  or\n  swap1\n  sstore\n  pop\n    /* \"contracts/RiseIn.sol\":111:3742  contract ProposalContract {... */\n  dataSize(sub_0)\n  dup1\n  dataOffset(sub_0)\n  0x00\n  codecopy\n  0x00\n  return\nstop\n\nsub_0: assembly {\n        /* \"contracts/RiseIn.sol\":111:3742  contract ProposalContract {... */\n      mstore(0x40, 0x80)\n      callvalue\n      dup1\n      iszero\n      tag_1\n      jumpi\n      0x00\n      dup1\n      revert\n    tag_1:\n      pop\n      jumpi(tag_2, lt(calldatasize, 0x04))\n      shr(0xe0, calldataload(0x00))\n      dup1\n      0x13af4035\n      eq\n      tag_3\n      jumpi\n      dup1\n      0x46f81a87\n      eq\n      tag_4\n      jumpi\n      dup1\n      0xb3f98adc\n      eq\n      tag_5\n      jumpi\n      dup1\n      0xcbff75cb\n      eq\n      tag_6\n      jumpi\n    tag_2:\n      0x00\n      dup1\n      revert\n        /* \"contracts/RiseIn.sol\":1547:1637  function setOwner(address new_owner) external onlyOwner {... */\n    tag_3:\n      tag_7\n      0x04\n      dup1\n      calldatasize\n      sub\n      dup2\n      add\n      swap1\n      tag_8\n      swap2\n      swap1\n      tag_9\n      jump\t// in\n    tag_8:\n      tag_10\n      jump\t// in\n    tag_7:\n      stop\n        /* \"contracts/RiseIn.sol\":1643:2085  function create(... */\n    tag_4:\n      tag_11\n      0x04\n      dup1\n      calldatasize\n      sub\n      dup2\n      add\n      swap1\n      tag_12\n      swap2\n      swap1\n      tag_13\n      jump\t// in\n    tag_12:\n      tag_14\n      jump\t// in\n    tag_11:\n      stop\n        /* \"contracts/RiseIn.sol\":2091:2953  function vote(uint8 choice) external active newVoter(msg.sender) {... */\n    tag_5:\n      tag_15\n      0x04\n      dup1\n      calldatasize\n      sub\n      dup2\n      add\n      swap1\n      tag_16\n      swap2\n      swap1\n      tag_17\n      jump\t// in\n    tag_16:\n      tag_18\n      jump\t// in\n    tag_15:\n      stop\n        /* \"contracts/RiseIn.sol\":3483:3740  function isVoted(address _address) public view returns (bool) {... */\n    tag_6:\n      tag_19\n      0x04\n      dup1\n      calldatasize\n      sub\n      dup2\n      add\n      swap1\n      tag_20\n      swap2\n      swap1\n      tag_9\n      jump\t// in\n    tag_20:\n      tag_21\n      jump\t// in\n    tag_19:\n      mload(0x40)\n      tag_22\n      swap2\n      swap1\n      tag_23\n      jump\t// in\n    tag_22:\n      mload(0x40)\n      dup1\n      swap2\n      sub\n      swap1\n      return\n        /* \"contracts/RiseIn.sol\":1547:1637  function setOwner(address new_owner) external onlyOwner {... */\n    tag_10:\n        /* \"contracts/RiseIn.sol\":1140:1145  owner */\n      0x00\n      dup1\n      sload\n      swap1\n      0x0100\n      exp\n      swap1\n      div\n      0xffffffffffffffffffffffffffffffffffffffff\n      and\n        /* \"contracts/RiseIn.sol\":1126:1145  msg.sender == owner */\n      0xffffffffffffffffffffffffffffffffffffffff\n      and\n        /* \"contracts/RiseIn.sol\":1126:1136  msg.sender */\n      caller\n        /* \"contracts/RiseIn.sol\":1126:1145  msg.sender == owner */\n      0xffffffffffffffffffffffffffffffffffffffff\n      and\n      eq\n        /* \"contracts/RiseIn.sol\":1118:1187  require(msg.sender == owner, \"Only the owner can call this function\") */\n      tag_25\n      jumpi\n      mload(0x40)\n      0x08c379a000000000000000000000000000000000000000000000000000000000\n      dup2\n      mstore\n      0x04\n      add\n      tag_26\n      swap1\n      tag_27\n      jump\t// in\n    tag_26:\n      mload(0x40)\n      dup1\n      swap2\n      sub\n      swap1\n      revert\n    tag_25:\n        /* \"contracts/RiseIn.sol\":1621:1630  new_owner */\n      dup1\n        /* \"contracts/RiseIn.sol\":1613:1618  owner */\n      0x00\n      dup1\n        /* \"contracts/RiseIn.sol\":1613:1630  owner = new_owner */\n      0x0100\n      exp\n      dup2\n      sload\n      dup2\n      0xffffffffffffffffffffffffffffffffffffffff\n      mul\n      not\n      and\n      swap1\n      dup4\n      0xffffffffffffffffffffffffffffffffffffffff\n      and\n      mul\n      or\n      swap1\n      sstore\n      pop\n        /* \"contracts/RiseIn.sol\":1547:1637  function setOwner(address new_owner) external onlyOwner {... */\n      pop\n      jump\t// out\n        /* \"contracts/RiseIn.sol\":1643:2085  function create(... */\n    tag_14:\n        /* \"contracts/RiseIn.sol\":1140:1145  owner */\n      0x00\n      dup1\n      sload\n      swap1\n      0x0100\n      exp\n      swap1\n      div\n      0xffffffffffffffffffffffffffffffffffffffff\n      and\n        /* \"contracts/RiseIn.sol\":1126:1145  msg.sender == owner */\n      0xffffffffffffffffffffffffffffffffffffffff\n      and\n        /* \"contracts/RiseIn.sol\":1126:1136  msg.sender */\n      caller\n        /* \"contracts/RiseIn.sol\":1126:1145  msg.sender == owner */\n      0xffffffffffffffffffffffffffffffffffffffff\n      and\n      eq\n        /* \"contracts/RiseIn.sol\":1118:1187  require(msg.sender == owner, \"Only the owner can call this function\") */\n      tag_30\n      jumpi\n      mload(0x40)\n      0x08c379a000000000000000000000000000000000000000000000000000000000\n      dup2\n      mstore\n      0x04\n      add\n      tag_31\n      swap1\n      tag_27\n      jump\t// in\n    tag_31:\n      mload(0x40)\n      dup1\n      swap2\n      sub\n      swap1\n      revert\n    tag_30:\n        /* \"contracts/RiseIn.sol\":1768:1788  _counter.increment() */\n      tag_33\n        /* \"contracts/RiseIn.sol\":1768:1776  _counter */\n      0x01\n        /* \"contracts/RiseIn.sol\":1768:1786  _counter.increment */\n      tag_34\n        /* \"contracts/RiseIn.sol\":1768:1788  _counter.increment() */\n      jump\t// in\n    tag_33:\n        /* \"contracts/RiseIn.sol\":1837:2078  Proposal({... */\n      mload(0x40)\n      dup1\n      0xe0\n      add\n      0x40\n      mstore\n      dup1\n        /* \"contracts/RiseIn.sol\":1873:1885  _description */\n      dup5\n      dup5\n        /* \"contracts/RiseIn.sol\":1837:2078  Proposal({... */\n      dup1\n      dup1\n      0x1f\n      add\n      0x20\n      dup1\n      swap2\n      div\n      mul\n      0x20\n      add\n      mload(0x40)\n      swap1\n      dup2\n      add\n      0x40\n      mstore\n      dup1\n      swap4\n      swap3\n      swap2\n      swap1\n      dup2\n      dup2\n      mstore\n      0x20\n      add\n      dup4\n      dup4\n      dup1\n      dup3\n      dup5\n      calldatacopy\n      0x00\n      dup2\n      dup5\n      add\n      mstore\n      not(0x1f)\n      0x1f\n      dup3\n      add\n      and\n      swap1\n      pop\n      dup1\n      dup4\n      add\n      swap3\n      pop\n      pop\n      pop\n      pop\n      pop\n      pop\n      pop\n      dup2\n      mstore\n      0x20\n      add\n        /* \"contracts/RiseIn.sol\":1908:1909  0 */\n      0x00\n        /* \"contracts/RiseIn.sol\":1837:2078  Proposal({... */\n      dup2\n      mstore\n      0x20\n      add\n        /* \"contracts/RiseIn.sol\":1931:1932  0 */\n      0x00\n        /* \"contracts/RiseIn.sol\":1837:2078  Proposal({... */\n      dup2\n      mstore\n      0x20\n      add\n        /* \"contracts/RiseIn.sol\":1952:1953  0 */\n      0x00\n        /* \"contracts/RiseIn.sol\":1837:2078  Proposal({... */\n      dup2\n      mstore\n      0x20\n      add\n        /* \"contracts/RiseIn.sol\":1986:2004  _total_vote_to_end */\n      dup3\n        /* \"contracts/RiseIn.sol\":1837:2078  Proposal({... */\n      dup2\n      mstore\n      0x20\n      add\n        /* \"contracts/RiseIn.sol\":2033:2038  false */\n      0x00\n        /* \"contracts/RiseIn.sol\":1837:2078  Proposal({... */\n      iszero\n      iszero\n      dup2\n      mstore\n      0x20\n      add\n        /* \"contracts/RiseIn.sol\":2063:2067  true */\n      0x01\n        /* \"contracts/RiseIn.sol\":1837:2078  Proposal({... */\n      iszero\n      iszero\n      dup2\n      mstore\n      pop\n        /* \"contracts/RiseIn.sol\":1798:1814  proposal_history */\n      0x02\n        /* \"contracts/RiseIn.sol\":1798:1834  proposal_history[_counter.current()] */\n      0x00\n        /* \"contracts/RiseIn.sol\":1815:1833  _counter.current() */\n      tag_35\n        /* \"contracts/RiseIn.sol\":1815:1823  _counter */\n      0x01\n        /* \"contracts/RiseIn.sol\":1815:1831  _counter.current */\n      tag_36\n        /* \"contracts/RiseIn.sol\":1815:1833  _counter.current() */\n      jump\t// in\n    tag_35:\n        /* \"contracts/RiseIn.sol\":1798:1834  proposal_history[_counter.current()] */\n      dup2\n      mstore\n      0x20\n      add\n      swap1\n      dup2\n      mstore\n      0x20\n      add\n      0x00\n      keccak256\n        /* \"contracts/RiseIn.sol\":1798:2078  proposal_history[_counter.current()] = Proposal({... */\n      0x00\n      dup3\n      add\n      mload\n      dup2\n      0x00\n      add\n      swap1\n      dup2\n      tag_37\n      swap2\n      swap1\n      tag_38\n      jump\t// in\n    tag_37:\n      pop\n      0x20\n      dup3\n      add\n      mload\n      dup2\n      0x01\n      add\n      sstore\n      0x40\n      dup3\n      add\n      mload\n      dup2\n      0x02\n      add\n      sstore\n      0x60\n      dup3\n      add\n      mload\n      dup2\n      0x03\n      add\n      sstore\n      0x80\n      dup3\n      add\n      mload\n      dup2\n      0x04\n      add\n      sstore\n      0xa0\n      dup3\n      add\n      mload\n      dup2\n      0x05\n      add\n      exp(0x0100, 0x00)\n      dup2\n      sload\n      dup2\n      0xff\n      mul\n      not\n      and\n      swap1\n      dup4\n      iszero\n      iszero\n      mul\n      or\n      swap1\n      sstore\n      pop\n      0xc0\n      dup3\n      add\n      mload\n      dup2\n      0x05\n      add\n      exp(0x0100, 0x01)\n      dup2\n      sload\n      dup2\n      0xff\n      mul\n      not\n      and\n      swap1\n      dup4\n      iszero\n      iszero\n      mul\n      or\n      swap1\n      sstore\n      pop\n      swap1\n      pop\n      pop\n        /* \"contracts/RiseIn.sol\":1643:2085  function create(... */\n      pop\n      pop\n      pop\n      jump\t// out\n        /* \"contracts/RiseIn.sol\":2091:2953  function vote(uint8 choice) external active newVoter(msg.sender) {... */\n    tag_18:\n        /* \"contracts/RiseIn.sol\":1297:1301  true */\n      0x01\n        /* \"contracts/RiseIn.sol\":1247:1301  proposal_history[_counter.current()].is_active == true */\n      iszero\n      iszero\n        /* \"contracts/RiseIn.sol\":1247:1263  proposal_history */\n      0x02\n        /* \"contracts/RiseIn.sol\":1247:1283  proposal_history[_counter.current()] */\n      0x00\n        /* \"contracts/RiseIn.sol\":1264:1282  _counter.current() */\n      tag_40\n        /* \"contracts/RiseIn.sol\":1264:1272  _counter */\n      0x01\n        /* \"contracts/RiseIn.sol\":1264:1280  _counter.current */\n      tag_36\n        /* \"contracts/RiseIn.sol\":1264:1282  _counter.current() */\n      jump\t// in\n    tag_40:\n        /* \"contracts/RiseIn.sol\":1247:1283  proposal_history[_counter.current()] */\n      dup2\n      mstore\n      0x20\n      add\n      swap1\n      dup2\n      mstore\n      0x20\n      add\n      0x00\n      keccak256\n        /* \"contracts/RiseIn.sol\":1247:1293  proposal_history[_counter.current()].is_active */\n      0x05\n      add\n      0x01\n      swap1\n      sload\n      swap1\n      0x0100\n      exp\n      swap1\n      div\n      0xff\n      and\n        /* \"contracts/RiseIn.sol\":1247:1301  proposal_history[_counter.current()].is_active == true */\n      iszero\n      iszero\n      eq\n        /* \"contracts/RiseIn.sol\":1239:1328  require(proposal_history[_counter.current()].is_active == true, \"Proposal is not active\") */\n      tag_41\n      jumpi\n      mload(0x40)\n      0x08c379a000000000000000000000000000000000000000000000000000000000\n      dup2\n      mstore\n      0x04\n      add\n      tag_42\n      swap1\n      tag_43\n      jump\t// in\n    tag_42:\n      mload(0x40)\n      dup1\n      swap2\n      sub\n      swap1\n      revert\n    tag_41:\n        /* \"contracts/RiseIn.sol\":2144:2154  msg.sender */\n      caller\n        /* \"contracts/RiseIn.sol\":1407:1424  isVoted(_address) */\n      tag_45\n        /* \"contracts/RiseIn.sol\":1415:1423  _address */\n      dup2\n        /* \"contracts/RiseIn.sol\":1407:1414  isVoted */\n      tag_21\n        /* \"contracts/RiseIn.sol\":1407:1424  isVoted(_address) */\n      jump\t// in\n    tag_45:\n        /* \"contracts/RiseIn.sol\":1406:1424  !isVoted(_address) */\n      iszero\n        /* \"contracts/RiseIn.sol\":1398:1454  require(!isVoted(_address), \"Address has already voted\") */\n      tag_46\n      jumpi\n      mload(0x40)\n      0x08c379a000000000000000000000000000000000000000000000000000000000\n      dup2\n      mstore\n      0x04\n      add\n      tag_47\n      swap1\n      tag_48\n      jump\t// in\n    tag_47:\n      mload(0x40)\n      dup1\n      swap2\n      sub\n      swap1\n      revert\n    tag_46:\n        /* \"contracts/RiseIn.sol\":2166:2191  Proposal storage proposal */\n      0x00\n        /* \"contracts/RiseIn.sol\":2194:2210  proposal_history */\n      0x02\n        /* \"contracts/RiseIn.sol\":2194:2230  proposal_history[_counter.current()] */\n      0x00\n        /* \"contracts/RiseIn.sol\":2211:2229  _counter.current() */\n      tag_50\n        /* \"contracts/RiseIn.sol\":2211:2219  _counter */\n      0x01\n        /* \"contracts/RiseIn.sol\":2211:2227  _counter.current */\n      tag_36\n        /* \"contracts/RiseIn.sol\":2211:2229  _counter.current() */\n      jump\t// in\n    tag_50:\n        /* \"contracts/RiseIn.sol\":2194:2230  proposal_history[_counter.current()] */\n      dup2\n      mstore\n      0x20\n      add\n      swap1\n      dup2\n      mstore\n      0x20\n      add\n      0x00\n      keccak256\n        /* \"contracts/RiseIn.sol\":2166:2230  Proposal storage proposal = proposal_history[_counter.current()] */\n      swap1\n      pop\n        /* \"contracts/RiseIn.sol\":2240:2258  uint256 total_vote */\n      0x00\n        /* \"contracts/RiseIn.sol\":2298:2306  proposal */\n      dup2\n        /* \"contracts/RiseIn.sol\":2298:2311  proposal.pass */\n      0x03\n      add\n      sload\n        /* \"contracts/RiseIn.sol\":2280:2288  proposal */\n      dup3\n        /* \"contracts/RiseIn.sol\":2280:2295  proposal.reject */\n      0x02\n      add\n      sload\n        /* \"contracts/RiseIn.sol\":2261:2269  proposal */\n      dup4\n        /* \"contracts/RiseIn.sol\":2261:2277  proposal.approve */\n      0x01\n      add\n      sload\n        /* \"contracts/RiseIn.sol\":2261:2295  proposal.approve + proposal.reject */\n      tag_51\n      swap2\n      swap1\n      tag_52\n      jump\t// in\n    tag_51:\n        /* \"contracts/RiseIn.sol\":2261:2311  proposal.approve + proposal.reject + proposal.pass */\n      tag_53\n      swap2\n      swap1\n      tag_52\n      jump\t// in\n    tag_53:\n        /* \"contracts/RiseIn.sol\":2240:2311  uint256 total_vote = proposal.approve + proposal.reject + proposal.pass */\n      swap1\n      pop\n        /* \"contracts/RiseIn.sol\":2322:2337  voted_addresses */\n      0x03\n        /* \"contracts/RiseIn.sol\":2343:2353  msg.sender */\n      caller\n        /* \"contracts/RiseIn.sol\":2322:2354  voted_addresses.push(msg.sender) */\n      swap1\n      dup1\n      0x01\n      dup2\n      sload\n      add\n      dup1\n      dup3\n      sstore\n      dup1\n      swap2\n      pop\n      pop\n      0x01\n      swap1\n      sub\n      swap1\n      0x00\n      mstore\n      keccak256(0x00, 0x20)\n      add\n      0x00\n      swap1\n      swap2\n      swap1\n      swap2\n      swap1\n      swap2\n      0x0100\n      exp\n      dup2\n      sload\n      dup2\n      0xffffffffffffffffffffffffffffffffffffffff\n      mul\n      not\n      and\n      swap1\n      dup4\n      0xffffffffffffffffffffffffffffffffffffffff\n      and\n      mul\n      or\n      swap1\n      sstore\n      pop\n        /* \"contracts/RiseIn.sol\":2379:2380  1 */\n      0x01\n        /* \"contracts/RiseIn.sol\":2369:2375  choice */\n      dup5\n        /* \"contracts/RiseIn.sol\":2369:2380  choice == 1 */\n      0xff\n      and\n      sub\n        /* \"contracts/RiseIn.sol\":2365:2748  if (choice == 1) {... */\n      tag_55\n      jumpi\n        /* \"contracts/RiseIn.sol\":2416:2417  1 */\n      0x01\n        /* \"contracts/RiseIn.sol\":2396:2404  proposal */\n      dup3\n        /* \"contracts/RiseIn.sol\":2396:2412  proposal.approve */\n      0x01\n      add\n      0x00\n        /* \"contracts/RiseIn.sol\":2396:2417  proposal.approve += 1 */\n      dup3\n      dup3\n      sload\n      tag_56\n      swap2\n      swap1\n      tag_52\n      jump\t// in\n    tag_56:\n      swap3\n      pop\n      pop\n      dup2\n      swap1\n      sstore\n      pop\n        /* \"contracts/RiseIn.sol\":2456:2479  calculateCurrentState() */\n      tag_57\n        /* \"contracts/RiseIn.sol\":2456:2477  calculateCurrentState */\n      tag_58\n        /* \"contracts/RiseIn.sol\":2456:2479  calculateCurrentState() */\n      jump\t// in\n    tag_57:\n        /* \"contracts/RiseIn.sol\":2431:2439  proposal */\n      dup3\n        /* \"contracts/RiseIn.sol\":2431:2453  proposal.current_state */\n      0x05\n      add\n      0x00\n        /* \"contracts/RiseIn.sol\":2431:2479  proposal.current_state = calculateCurrentState() */\n      0x0100\n      exp\n      dup2\n      sload\n      dup2\n      0xff\n      mul\n      not\n      and\n      swap1\n      dup4\n      iszero\n      iszero\n      mul\n      or\n      swap1\n      sstore\n      pop\n        /* \"contracts/RiseIn.sol\":2365:2748  if (choice == 1) {... */\n      jump(tag_59)\n    tag_55:\n        /* \"contracts/RiseIn.sol\":2510:2511  2 */\n      0x02\n        /* \"contracts/RiseIn.sol\":2500:2506  choice */\n      dup5\n        /* \"contracts/RiseIn.sol\":2500:2511  choice == 2 */\n      0xff\n      and\n      sub\n        /* \"contracts/RiseIn.sol\":2496:2748  if (choice == 2) {... */\n      tag_60\n      jumpi\n        /* \"contracts/RiseIn.sol\":2546:2547  1 */\n      0x01\n        /* \"contracts/RiseIn.sol\":2527:2535  proposal */\n      dup3\n        /* \"contracts/RiseIn.sol\":2527:2542  proposal.reject */\n      0x02\n      add\n      0x00\n        /* \"contracts/RiseIn.sol\":2527:2547  proposal.reject += 1 */\n      dup3\n      dup3\n      sload\n      tag_61\n      swap2\n      swap1\n      tag_52\n      jump\t// in\n    tag_61:\n      swap3\n      pop\n      pop\n      dup2\n      swap1\n      sstore\n      pop\n        /* \"contracts/RiseIn.sol\":2586:2609  calculateCurrentState() */\n      tag_62\n        /* \"contracts/RiseIn.sol\":2586:2607  calculateCurrentState */\n      tag_58\n        /* \"contracts/RiseIn.sol\":2586:2609  calculateCurrentState() */\n      jump\t// in\n    tag_62:\n        /* \"contracts/RiseIn.sol\":2561:2569  proposal */\n      dup3\n        /* \"contracts/RiseIn.sol\":2561:2583  proposal.current_state */\n      0x05\n      add\n      0x00\n        /* \"contracts/RiseIn.sol\":2561:2609  proposal.current_state = calculateCurrentState() */\n      0x0100\n      exp\n      dup2\n      sload\n      dup2\n      0xff\n      mul\n      not\n      and\n      swap1\n      dup4\n      iszero\n      iszero\n      mul\n      or\n      swap1\n      sstore\n      pop\n        /* \"contracts/RiseIn.sol\":2496:2748  if (choice == 2) {... */\n      jump(tag_63)\n    tag_60:\n        /* \"contracts/RiseIn.sol\":2640:2641  0 */\n      0x00\n        /* \"contracts/RiseIn.sol\":2630:2636  choice */\n      dup5\n        /* \"contracts/RiseIn.sol\":2630:2641  choice == 0 */\n      0xff\n      and\n      sub\n        /* \"contracts/RiseIn.sol\":2626:2748  if (choice == 0) {... */\n      tag_64\n      jumpi\n        /* \"contracts/RiseIn.sol\":2674:2675  1 */\n      0x01\n        /* \"contracts/RiseIn.sol\":2657:2665  proposal */\n      dup3\n        /* \"contracts/RiseIn.sol\":2657:2670  proposal.pass */\n      0x03\n      add\n      0x00\n        /* \"contracts/RiseIn.sol\":2657:2675  proposal.pass += 1 */\n      dup3\n      dup3\n      sload\n      tag_65\n      swap2\n      swap1\n      tag_52\n      jump\t// in\n    tag_65:\n      swap3\n      pop\n      pop\n      dup2\n      swap1\n      sstore\n      pop\n        /* \"contracts/RiseIn.sol\":2714:2737  calculateCurrentState() */\n      tag_66\n        /* \"contracts/RiseIn.sol\":2714:2735  calculateCurrentState */\n      tag_58\n        /* \"contracts/RiseIn.sol\":2714:2737  calculateCurrentState() */\n      jump\t// in\n    tag_66:\n        /* \"contracts/RiseIn.sol\":2689:2697  proposal */\n      dup3\n        /* \"contracts/RiseIn.sol\":2689:2711  proposal.current_state */\n      0x05\n      add\n      0x00\n        /* \"contracts/RiseIn.sol\":2689:2737  proposal.current_state = calculateCurrentState() */\n      0x0100\n      exp\n      dup2\n      sload\n      dup2\n      0xff\n      mul\n      not\n      and\n      swap1\n      dup4\n      iszero\n      iszero\n      mul\n      or\n      swap1\n      sstore\n      pop\n        /* \"contracts/RiseIn.sol\":2626:2748  if (choice == 0) {... */\n    tag_64:\n        /* \"contracts/RiseIn.sol\":2496:2748  if (choice == 2) {... */\n    tag_63:\n        /* \"contracts/RiseIn.sol\":2365:2748  if (choice == 1) {... */\n    tag_59:\n        /* \"contracts/RiseIn.sol\":2806:2807  1 */\n      0x01\n        /* \"contracts/RiseIn.sol\":2792:2802  total_vote */\n      dup2\n        /* \"contracts/RiseIn.sol\":2763:2771  proposal */\n      dup4\n        /* \"contracts/RiseIn.sol\":2763:2789  proposal.total_vote_to_end */\n      0x04\n      add\n      sload\n        /* \"contracts/RiseIn.sol\":2763:2802  proposal.total_vote_to_end - total_vote */\n      tag_67\n      swap2\n      swap1\n      tag_68\n      jump\t// in\n    tag_67:\n        /* \"contracts/RiseIn.sol\":2763:2807  proposal.total_vote_to_end - total_vote == 1 */\n      eq\n        /* \"contracts/RiseIn.sol\":2762:2855  (proposal.total_vote_to_end - total_vote == 1) && (choice == 1 || choice == 2 || choice == 0) */\n      dup1\n      iszero\n      tag_69\n      jumpi\n      pop\n        /* \"contracts/RiseIn.sol\":2823:2824  1 */\n      0x01\n        /* \"contracts/RiseIn.sol\":2813:2819  choice */\n      dup5\n        /* \"contracts/RiseIn.sol\":2813:2824  choice == 1 */\n      0xff\n      and\n      eq\n        /* \"contracts/RiseIn.sol\":2813:2839  choice == 1 || choice == 2 */\n      dup1\n      tag_70\n      jumpi\n      pop\n        /* \"contracts/RiseIn.sol\":2838:2839  2 */\n      0x02\n        /* \"contracts/RiseIn.sol\":2828:2834  choice */\n      dup5\n        /* \"contracts/RiseIn.sol\":2828:2839  choice == 2 */\n      0xff\n      and\n      eq\n        /* \"contracts/RiseIn.sol\":2813:2839  choice == 1 || choice == 2 */\n    tag_70:\n        /* \"contracts/RiseIn.sol\":2813:2854  choice == 1 || choice == 2 || choice == 0 */\n      dup1\n      tag_71\n      jumpi\n      pop\n        /* \"contracts/RiseIn.sol\":2853:2854  0 */\n      0x00\n        /* \"contracts/RiseIn.sol\":2843:2849  choice */\n      dup5\n        /* \"contracts/RiseIn.sol\":2843:2854  choice == 0 */\n      0xff\n      and\n      eq\n        /* \"contracts/RiseIn.sol\":2813:2854  choice == 1 || choice == 2 || choice == 0 */\n    tag_71:\n        /* \"contracts/RiseIn.sol\":2762:2855  (proposal.total_vote_to_end - total_vote == 1) && (choice == 1 || choice == 2 || choice == 0) */\n    tag_69:\n        /* \"contracts/RiseIn.sol\":2758:2947  if ((proposal.total_vote_to_end - total_vote == 1) && (choice == 1 || choice == 2 || choice == 0)) {... */\n      iszero\n      tag_72\n      jumpi\n        /* \"contracts/RiseIn.sol\":2892:2897  false */\n      0x00\n        /* \"contracts/RiseIn.sol\":2871:2879  proposal */\n      dup3\n        /* \"contracts/RiseIn.sol\":2871:2889  proposal.is_active */\n      0x05\n      add\n      0x01\n        /* \"contracts/RiseIn.sol\":2871:2897  proposal.is_active = false */\n      0x0100\n      exp\n      dup2\n      sload\n      dup2\n      0xff\n      mul\n      not\n      and\n      swap1\n      dup4\n      iszero\n      iszero\n      mul\n      or\n      swap1\n      sstore\n      pop\n        /* \"contracts/RiseIn.sol\":2911:2936  voted_addresses = [owner] */\n      mload(0x40)\n      dup1\n      0x20\n      add\n      0x40\n      mstore\n      dup1\n        /* \"contracts/RiseIn.sol\":2930:2935  owner */\n      0x00\n      dup1\n      sload\n      swap1\n      0x0100\n      exp\n      swap1\n      div\n      0xffffffffffffffffffffffffffffffffffffffff\n      and\n        /* \"contracts/RiseIn.sol\":2911:2936  voted_addresses = [owner] */\n      0xffffffffffffffffffffffffffffffffffffffff\n      and\n      0xffffffffffffffffffffffffffffffffffffffff\n      and\n      dup2\n      mstore\n      pop\n        /* \"contracts/RiseIn.sol\":2911:2926  voted_addresses */\n      0x03\n        /* \"contracts/RiseIn.sol\":2911:2936  voted_addresses = [owner] */\n      swap1\n      0x01\n      tag_73\n      swap3\n      swap2\n      swap1\n      tag_74\n      jump\t// in\n    tag_73:\n      pop\n        /* \"contracts/RiseIn.sol\":2758:2947  if ((proposal.total_vote_to_end - total_vote == 1) && (choice == 1 || choice == 2 || choice == 0)) {... */\n    tag_72:\n        /* \"contracts/RiseIn.sol\":2156:2953  {... */\n      pop\n      pop\n        /* \"contracts/RiseIn.sol\":1338:1339  _ */\n      pop\n        /* \"contracts/RiseIn.sol\":2091:2953  function vote(uint8 choice) external active newVoter(msg.sender) {... */\n      pop\n      jump\t// out\n        /* \"contracts/RiseIn.sol\":3483:3740  function isVoted(address _address) public view returns (bool) {... */\n    tag_21:\n        /* \"contracts/RiseIn.sol\":3539:3543  bool */\n      0x00\n        /* \"contracts/RiseIn.sol\":3560:3569  uint256 i */\n      dup1\n        /* \"contracts/RiseIn.sol\":3572:3573  0 */\n      0x00\n        /* \"contracts/RiseIn.sol\":3560:3573  uint256 i = 0 */\n      swap1\n      pop\n        /* \"contracts/RiseIn.sol\":3555:3712  for (uint256 i = 0; i < voted_addresses.length; i++) {... */\n    tag_76:\n        /* \"contracts/RiseIn.sol\":3579:3594  voted_addresses */\n      0x03\n        /* \"contracts/RiseIn.sol\":3579:3601  voted_addresses.length */\n      dup1\n      sload\n      swap1\n      pop\n        /* \"contracts/RiseIn.sol\":3575:3576  i */\n      dup2\n        /* \"contracts/RiseIn.sol\":3575:3601  i < voted_addresses.length */\n      lt\n        /* \"contracts/RiseIn.sol\":3555:3712  for (uint256 i = 0; i < voted_addresses.length; i++) {... */\n      iszero\n      tag_77\n      jumpi\n        /* \"contracts/RiseIn.sol\":3648:3656  _address */\n      dup3\n        /* \"contracts/RiseIn.sol\":3626:3656  voted_addresses[i] == _address */\n      0xffffffffffffffffffffffffffffffffffffffff\n      and\n        /* \"contracts/RiseIn.sol\":3626:3641  voted_addresses */\n      0x03\n        /* \"contracts/RiseIn.sol\":3642:3643  i */\n      dup3\n        /* \"contracts/RiseIn.sol\":3626:3644  voted_addresses[i] */\n      dup2\n      sload\n      dup2\n      lt\n      tag_79\n      jumpi\n      tag_80\n      tag_81\n      jump\t// in\n    tag_80:\n    tag_79:\n      swap1\n      0x00\n      mstore\n      keccak256(0x00, 0x20)\n      add\n      0x00\n      swap1\n      sload\n      swap1\n      0x0100\n      exp\n      swap1\n      div\n      0xffffffffffffffffffffffffffffffffffffffff\n      and\n        /* \"contracts/RiseIn.sol\":3626:3656  voted_addresses[i] == _address */\n      0xffffffffffffffffffffffffffffffffffffffff\n      and\n      sub\n        /* \"contracts/RiseIn.sol\":3622:3702  if (voted_addresses[i] == _address) {... */\n      tag_83\n      jumpi\n        /* \"contracts/RiseIn.sol\":3683:3687  true */\n      0x01\n        /* \"contracts/RiseIn.sol\":3676:3687  return true */\n      swap2\n      pop\n      pop\n      jump(tag_75)\n        /* \"contracts/RiseIn.sol\":3622:3702  if (voted_addresses[i] == _address) {... */\n    tag_83:\n        /* \"contracts/RiseIn.sol\":3603:3606  i++ */\n      dup1\n      dup1\n      0x01\n      add\n      swap2\n      pop\n      pop\n        /* \"contracts/RiseIn.sol\":3555:3712  for (uint256 i = 0; i < voted_addresses.length; i++) {... */\n      jump(tag_76)\n    tag_77:\n      pop\n        /* \"contracts/RiseIn.sol\":3728:3733  false */\n      0x00\n        /* \"contracts/RiseIn.sol\":3721:3733  return false */\n      swap1\n      pop\n        /* \"contracts/RiseIn.sol\":3483:3740  function isVoted(address _address) public view returns (bool) {... */\n    tag_75:\n      swap2\n      swap1\n      pop\n      jump\t// out\n        /* \"@openzeppelin/contracts/utils/Counters.sol\":945:1068  function increment(Counter storage counter) internal {... */\n    tag_34:\n        /* \"@openzeppelin/contracts/utils/Counters.sol\":1050:1051  1 */\n      0x01\n        /* \"@openzeppelin/contracts/utils/Counters.sol\":1032:1039  counter */\n      dup2\n        /* \"@openzeppelin/contracts/utils/Counters.sol\":1032:1046  counter._value */\n      0x00\n      add\n      0x00\n        /* \"@openzeppelin/contracts/utils/Counters.sol\":1032:1051  counter._value += 1 */\n      dup3\n      dup3\n      sload\n      add\n      swap3\n      pop\n      pop\n      dup2\n      swap1\n      sstore\n      pop\n        /* \"@openzeppelin/contracts/utils/Counters.sol\":945:1068  function increment(Counter storage counter) internal {... */\n      pop\n      jump\t// out\n        /* \"@openzeppelin/contracts/utils/Counters.sol\":827:939  function current(Counter storage counter) internal view returns (uint256) {... */\n    tag_36:\n        /* \"@openzeppelin/contracts/utils/Counters.sol\":892:899  uint256 */\n      0x00\n        /* \"@openzeppelin/contracts/utils/Counters.sol\":918:925  counter */\n      dup2\n        /* \"@openzeppelin/contracts/utils/Counters.sol\":918:932  counter._value */\n      0x00\n      add\n      sload\n        /* \"@openzeppelin/contracts/utils/Counters.sol\":911:932  return counter._value */\n      swap1\n      pop\n        /* \"@openzeppelin/contracts/utils/Counters.sol\":827:939  function current(Counter storage counter) internal view returns (uint256) {... */\n      swap2\n      swap1\n      pop\n      jump\t// out\n        /* \"contracts/RiseIn.sol\":2959:3477  function calculateCurrentState() private view returns (bool) {... */\n    tag_58:\n        /* \"contracts/RiseIn.sol\":3014:3018  bool */\n      0x00\n        /* \"contracts/RiseIn.sol\":3030:3055  Proposal storage proposal */\n      dup1\n        /* \"contracts/RiseIn.sol\":3058:3074  proposal_history */\n      0x02\n        /* \"contracts/RiseIn.sol\":3058:3094  proposal_history[_counter.current()] */\n      0x00\n        /* \"contracts/RiseIn.sol\":3075:3093  _counter.current() */\n      tag_87\n        /* \"contracts/RiseIn.sol\":3075:3083  _counter */\n      0x01\n        /* \"contracts/RiseIn.sol\":3075:3091  _counter.current */\n      tag_36\n        /* \"contracts/RiseIn.sol\":3075:3093  _counter.current() */\n      jump\t// in\n    tag_87:\n        /* \"contracts/RiseIn.sol\":3058:3094  proposal_history[_counter.current()] */\n      dup2\n      mstore\n      0x20\n      add\n      swap1\n      dup2\n      mstore\n      0x20\n      add\n      0x00\n      keccak256\n        /* \"contracts/RiseIn.sol\":3030:3094  Proposal storage proposal = proposal_history[_counter.current()] */\n      swap1\n      pop\n        /* \"contracts/RiseIn.sol\":3105:3120  uint256 approve */\n      0x00\n        /* \"contracts/RiseIn.sol\":3123:3131  proposal */\n      dup2\n        /* \"contracts/RiseIn.sol\":3123:3139  proposal.approve */\n      0x01\n      add\n      sload\n        /* \"contracts/RiseIn.sol\":3105:3139  uint256 approve = proposal.approve */\n      swap1\n      pop\n        /* \"contracts/RiseIn.sol\":3149:3163  uint256 reject */\n      0x00\n        /* \"contracts/RiseIn.sol\":3166:3174  proposal */\n      dup3\n        /* \"contracts/RiseIn.sol\":3166:3181  proposal.reject */\n      0x02\n      add\n      sload\n        /* \"contracts/RiseIn.sol\":3149:3181  uint256 reject = proposal.reject */\n      swap1\n      pop\n        /* \"contracts/RiseIn.sol\":3191:3203  uint256 pass */\n      0x00\n        /* \"contracts/RiseIn.sol\":3206:3214  proposal */\n      dup4\n        /* \"contracts/RiseIn.sol\":3206:3219  proposal.pass */\n      0x03\n      add\n      sload\n        /* \"contracts/RiseIn.sol\":3191:3219  uint256 pass = proposal.pass */\n      swap1\n      pop\n        /* \"contracts/RiseIn.sol\":3384:3390  reject */\n      dup2\n        /* \"contracts/RiseIn.sol\":3380:3381  2 */\n      0x02\n        /* \"contracts/RiseIn.sol\":3380:3390  2 * reject */\n      tag_88\n      swap2\n      swap1\n      tag_89\n      jump\t// in\n    tag_88:\n        /* \"contracts/RiseIn.sol\":3369:3376  approve */\n      dup4\n        /* \"contracts/RiseIn.sol\":3369:3390  approve >= 2 * reject */\n      lt\n        /* \"contracts/RiseIn.sol\":3365:3471  if (approve >= 2 * reject) {... */\n      tag_90\n      jumpi\n        /* \"contracts/RiseIn.sol\":3413:3417  true */\n      0x01\n        /* \"contracts/RiseIn.sol\":3406:3417  return true */\n      swap5\n      pop\n      pop\n      pop\n      pop\n      pop\n      jump(tag_86)\n        /* \"contracts/RiseIn.sol\":3365:3471  if (approve >= 2 * reject) {... */\n    tag_90:\n        /* \"contracts/RiseIn.sol\":3455:3460  false */\n      0x00\n        /* \"contracts/RiseIn.sol\":3448:3460  return false */\n      swap5\n      pop\n      pop\n      pop\n      pop\n      pop\n        /* \"contracts/RiseIn.sol\":2959:3477  function calculateCurrentState() private view returns (bool) {... */\n    tag_86:\n      swap1\n      jump\t// out\n    tag_74:\n      dup3\n      dup1\n      sload\n      dup3\n      dup3\n      sstore\n      swap1\n      0x00\n      mstore\n      keccak256(0x00, 0x20)\n      swap1\n      dup2\n      add\n      swap3\n      dup3\n      iszero\n      tag_92\n      jumpi\n      swap2\n      0x20\n      mul\n      dup3\n      add\n    tag_93:\n      dup3\n      dup2\n      gt\n      iszero\n      tag_94\n      jumpi\n      dup3\n      mload\n      dup3\n      exp(0x0100, 0x00)\n      dup2\n      sload\n      dup2\n      0xffffffffffffffffffffffffffffffffffffffff\n      mul\n      not\n      and\n      swap1\n      dup4\n      0xffffffffffffffffffffffffffffffffffffffff\n      and\n      mul\n      or\n      swap1\n      sstore\n      pop\n      swap2\n      0x20\n      add\n      swap2\n      swap1\n      0x01\n      add\n      swap1\n      jump(tag_93)\n    tag_94:\n    tag_92:\n      pop\n      swap1\n      pop\n      tag_95\n      swap2\n      swap1\n      tag_96\n      jump\t// in\n    tag_95:\n      pop\n      swap1\n      jump\t// out\n    tag_96:\n    tag_97:\n      dup1\n      dup3\n      gt\n      iszero\n      tag_98\n      jumpi\n      0x00\n      dup2\n      0x00\n      swap1\n      sstore\n      pop\n      0x01\n      add\n      jump(tag_97)\n    tag_98:\n      pop\n      swap1\n      jump\t// out\n        /* \"#utility.yul\":88:205   */\n    tag_100:\n        /* \"#utility.yul\":197:198   */\n      0x00\n        /* \"#utility.yul\":194:195   */\n      dup1\n        /* \"#utility.yul\":187:199   */\n      revert\n        /* \"#utility.yul\":211:328   */\n    tag_101:\n        /* \"#utility.yul\":320:321   */\n      0x00\n        /* \"#utility.yul\":317:318   */\n      dup1\n        /* \"#utility.yul\":310:322   */\n      revert\n        /* \"#utility.yul\":334:460   */\n    tag_102:\n        /* \"#utility.yul\":371:378   */\n      0x00\n        /* \"#utility.yul\":411:453   */\n      0xffffffffffffffffffffffffffffffffffffffff\n        /* \"#utility.yul\":404:409   */\n      dup3\n        /* \"#utility.yul\":400:454   */\n      and\n        /* \"#utility.yul\":389:454   */\n      swap1\n      pop\n        /* \"#utility.yul\":334:460   */\n      swap2\n      swap1\n      pop\n      jump\t// out\n        /* \"#utility.yul\":466:562   */\n    tag_103:\n        /* \"#utility.yul\":503:510   */\n      0x00\n        /* \"#utility.yul\":532:556   */\n      tag_151\n        /* \"#utility.yul\":550:555   */\n      dup3\n        /* \"#utility.yul\":532:556   */\n      tag_102\n      jump\t// in\n    tag_151:\n        /* \"#utility.yul\":521:556   */\n      swap1\n      pop\n        /* \"#utility.yul\":466:562   */\n      swap2\n      swap1\n      pop\n      jump\t// out\n        /* \"#utility.yul\":568:690   */\n    tag_104:\n        /* \"#utility.yul\":641:665   */\n      tag_153\n        /* \"#utility.yul\":659:664   */\n      dup2\n        /* \"#utility.yul\":641:665   */\n      tag_103\n      jump\t// in\n    tag_153:\n        /* \"#utility.yul\":634:639   */\n      dup2\n        /* \"#utility.yul\":631:666   */\n      eq\n        /* \"#utility.yul\":621:684   */\n      tag_154\n      jumpi\n        /* \"#utility.yul\":680:681   */\n      0x00\n        /* \"#utility.yul\":677:678   */\n      dup1\n        /* \"#utility.yul\":670:682   */\n      revert\n        /* \"#utility.yul\":621:684   */\n    tag_154:\n        /* \"#utility.yul\":568:690   */\n      pop\n      jump\t// out\n        /* \"#utility.yul\":696:835   */\n    tag_105:\n        /* \"#utility.yul\":742:747   */\n      0x00\n        /* \"#utility.yul\":780:786   */\n      dup2\n        /* \"#utility.yul\":767:787   */\n      calldataload\n        /* \"#utility.yul\":758:787   */\n      swap1\n      pop\n        /* \"#utility.yul\":796:829   */\n      tag_156\n        /* \"#utility.yul\":823:828   */\n      dup2\n        /* \"#utility.yul\":796:829   */\n      tag_104\n      jump\t// in\n    tag_156:\n        /* \"#utility.yul\":696:835   */\n      swap3\n      swap2\n      pop\n      pop\n      jump\t// out\n        /* \"#utility.yul\":841:1170   */\n    tag_9:\n        /* \"#utility.yul\":900:906   */\n      0x00\n        /* \"#utility.yul\":949:951   */\n      0x20\n        /* \"#utility.yul\":937:946   */\n      dup3\n        /* \"#utility.yul\":928:935   */\n      dup5\n        /* \"#utility.yul\":924:947   */\n      sub\n        /* \"#utility.yul\":920:952   */\n      slt\n        /* \"#utility.yul\":917:1036   */\n      iszero\n      tag_158\n      jumpi\n        /* \"#utility.yul\":955:1034   */\n      tag_159\n      tag_100\n      jump\t// in\n    tag_159:\n        /* \"#utility.yul\":917:1036   */\n    tag_158:\n        /* \"#utility.yul\":1075:1076   */\n      0x00\n        /* \"#utility.yul\":1100:1153   */\n      tag_160\n        /* \"#utility.yul\":1145:1152   */\n      dup5\n        /* \"#utility.yul\":1136:1142   */\n      dup3\n        /* \"#utility.yul\":1125:1134   */\n      dup6\n        /* \"#utility.yul\":1121:1143   */\n      add\n        /* \"#utility.yul\":1100:1153   */\n      tag_105\n      jump\t// in\n    tag_160:\n        /* \"#utility.yul\":1090:1153   */\n      swap2\n      pop\n        /* \"#utility.yul\":1046:1163   */\n      pop\n        /* \"#utility.yul\":841:1170   */\n      swap3\n      swap2\n      pop\n      pop\n      jump\t// out\n        /* \"#utility.yul\":1176:1293   */\n    tag_106:\n        /* \"#utility.yul\":1285:1286   */\n      0x00\n        /* \"#utility.yul\":1282:1283   */\n      dup1\n        /* \"#utility.yul\":1275:1287   */\n      revert\n        /* \"#utility.yul\":1299:1416   */\n    tag_107:\n        /* \"#utility.yul\":1408:1409   */\n      0x00\n        /* \"#utility.yul\":1405:1406   */\n      dup1\n        /* \"#utility.yul\":1398:1410   */\n      revert\n        /* \"#utility.yul\":1422:1539   */\n    tag_108:\n        /* \"#utility.yul\":1531:1532   */\n      0x00\n        /* \"#utility.yul\":1528:1529   */\n      dup1\n        /* \"#utility.yul\":1521:1533   */\n      revert\n        /* \"#utility.yul\":1559:2112   */\n    tag_109:\n        /* \"#utility.yul\":1617:1625   */\n      0x00\n        /* \"#utility.yul\":1627:1633   */\n      dup1\n        /* \"#utility.yul\":1677:1680   */\n      dup4\n        /* \"#utility.yul\":1670:1674   */\n      0x1f\n        /* \"#utility.yul\":1662:1668   */\n      dup5\n        /* \"#utility.yul\":1658:1675   */\n      add\n        /* \"#utility.yul\":1654:1681   */\n      slt\n        /* \"#utility.yul\":1644:1766   */\n      tag_165\n      jumpi\n        /* \"#utility.yul\":1685:1764   */\n      tag_166\n      tag_106\n      jump\t// in\n    tag_166:\n        /* \"#utility.yul\":1644:1766   */\n    tag_165:\n        /* \"#utility.yul\":1798:1804   */\n      dup3\n        /* \"#utility.yul\":1785:1805   */\n      calldataload\n        /* \"#utility.yul\":1775:1805   */\n      swap1\n      pop\n        /* \"#utility.yul\":1828:1846   */\n      0xffffffffffffffff\n        /* \"#utility.yul\":1820:1826   */\n      dup2\n        /* \"#utility.yul\":1817:1847   */\n      gt\n        /* \"#utility.yul\":1814:1931   */\n      iszero\n      tag_167\n      jumpi\n        /* \"#utility.yul\":1850:1929   */\n      tag_168\n      tag_107\n      jump\t// in\n    tag_168:\n        /* \"#utility.yul\":1814:1931   */\n    tag_167:\n        /* \"#utility.yul\":1964:1968   */\n      0x20\n        /* \"#utility.yul\":1956:1962   */\n      dup4\n        /* \"#utility.yul\":1952:1969   */\n      add\n        /* \"#utility.yul\":1940:1969   */\n      swap2\n      pop\n        /* \"#utility.yul\":2018:2021   */\n      dup4\n        /* \"#utility.yul\":2010:2014   */\n      0x01\n        /* \"#utility.yul\":2002:2008   */\n      dup3\n        /* \"#utility.yul\":1998:2015   */\n      mul\n        /* \"#utility.yul\":1988:1996   */\n      dup4\n        /* \"#utility.yul\":1984:2016   */\n      add\n        /* \"#utility.yul\":1981:2022   */\n      gt\n        /* \"#utility.yul\":1978:2106   */\n      iszero\n      tag_169\n      jumpi\n        /* \"#utility.yul\":2025:2104   */\n      tag_170\n      tag_108\n      jump\t// in\n    tag_170:\n        /* \"#utility.yul\":1978:2106   */\n    tag_169:\n        /* \"#utility.yul\":1559:2112   */\n      swap3\n      pop\n      swap3\n      swap1\n      pop\n      jump\t// out\n        /* \"#utility.yul\":2118:2195   */\n    tag_110:\n        /* \"#utility.yul\":2155:2162   */\n      0x00\n        /* \"#utility.yul\":2184:2189   */\n      dup2\n        /* \"#utility.yul\":2173:2189   */\n      swap1\n      pop\n        /* \"#utility.yul\":2118:2195   */\n      swap2\n      swap1\n      pop\n      jump\t// out\n        /* \"#utility.yul\":2201:2323   */\n    tag_111:\n        /* \"#utility.yul\":2274:2298   */\n      tag_173\n        /* \"#utility.yul\":2292:2297   */\n      dup2\n        /* \"#utility.yul\":2274:2298   */\n      tag_110\n      jump\t// in\n    tag_173:\n        /* \"#utility.yul\":2267:2272   */\n      dup2\n        /* \"#utility.yul\":2264:2299   */\n      eq\n        /* \"#utility.yul\":2254:2317   */\n      tag_174\n      jumpi\n        /* \"#utility.yul\":2313:2314   */\n      0x00\n        /* \"#utility.yul\":2310:2311   */\n      dup1\n        /* \"#utility.yul\":2303:2315   */\n      revert\n        /* \"#utility.yul\":2254:2317   */\n    tag_174:\n        /* \"#utility.yul\":2201:2323   */\n      pop\n      jump\t// out\n        /* \"#utility.yul\":2329:2468   */\n    tag_112:\n        /* \"#utility.yul\":2375:2380   */\n      0x00\n        /* \"#utility.yul\":2413:2419   */\n      dup2\n        /* \"#utility.yul\":2400:2420   */\n      calldataload\n        /* \"#utility.yul\":2391:2420   */\n      swap1\n      pop\n        /* \"#utility.yul\":2429:2462   */\n      tag_176\n        /* \"#utility.yul\":2456:2461   */\n      dup2\n        /* \"#utility.yul\":2429:2462   */\n      tag_111\n      jump\t// in\n    tag_176:\n        /* \"#utility.yul\":2329:2468   */\n      swap3\n      swap2\n      pop\n      pop\n      jump\t// out\n        /* \"#utility.yul\":2474:3148   */\n    tag_13:\n        /* \"#utility.yul\":2554:2560   */\n      0x00\n        /* \"#utility.yul\":2562:2568   */\n      dup1\n        /* \"#utility.yul\":2570:2576   */\n      0x00\n        /* \"#utility.yul\":2619:2621   */\n      0x40\n        /* \"#utility.yul\":2607:2616   */\n      dup5\n        /* \"#utility.yul\":2598:2605   */\n      dup7\n        /* \"#utility.yul\":2594:2617   */\n      sub\n        /* \"#utility.yul\":2590:2622   */\n      slt\n        /* \"#utility.yul\":2587:2706   */\n      iszero\n      tag_178\n      jumpi\n        /* \"#utility.yul\":2625:2704   */\n      tag_179\n      tag_100\n      jump\t// in\n    tag_179:\n        /* \"#utility.yul\":2587:2706   */\n    tag_178:\n        /* \"#utility.yul\":2773:2774   */\n      0x00\n        /* \"#utility.yul\":2762:2771   */\n      dup5\n        /* \"#utility.yul\":2758:2775   */\n      add\n        /* \"#utility.yul\":2745:2776   */\n      calldataload\n        /* \"#utility.yul\":2803:2821   */\n      0xffffffffffffffff\n        /* \"#utility.yul\":2795:2801   */\n      dup2\n        /* \"#utility.yul\":2792:2822   */\n      gt\n        /* \"#utility.yul\":2789:2906   */\n      iszero\n      tag_180\n      jumpi\n        /* \"#utility.yul\":2825:2904   */\n      tag_181\n      tag_101\n      jump\t// in\n    tag_181:\n        /* \"#utility.yul\":2789:2906   */\n    tag_180:\n        /* \"#utility.yul\":2938:3003   */\n      tag_182\n        /* \"#utility.yul\":2995:3002   */\n      dup7\n        /* \"#utility.yul\":2986:2992   */\n      dup3\n        /* \"#utility.yul\":2975:2984   */\n      dup8\n        /* \"#utility.yul\":2971:2993   */\n      add\n        /* \"#utility.yul\":2938:3003   */\n      tag_109\n      jump\t// in\n    tag_182:\n        /* \"#utility.yul\":2920:3003   */\n      swap4\n      pop\n      swap4\n      pop\n        /* \"#utility.yul\":2716:3013   */\n      pop\n        /* \"#utility.yul\":3052:3054   */\n      0x20\n        /* \"#utility.yul\":3078:3131   */\n      tag_183\n        /* \"#utility.yul\":3123:3130   */\n      dup7\n        /* \"#utility.yul\":3114:3120   */\n      dup3\n        /* \"#utility.yul\":3103:3112   */\n      dup8\n        /* \"#utility.yul\":3099:3121   */\n      add\n        /* \"#utility.yul\":3078:3131   */\n      tag_112\n      jump\t// in\n    tag_183:\n        /* \"#utility.yul\":3068:3131   */\n      swap2\n      pop\n        /* \"#utility.yul\":3023:3141   */\n      pop\n        /* \"#utility.yul\":2474:3148   */\n      swap3\n      pop\n      swap3\n      pop\n      swap3\n      jump\t// out\n        /* \"#utility.yul\":3154:3240   */\n    tag_113:\n        /* \"#utility.yul\":3189:3196   */\n      0x00\n        /* \"#utility.yul\":3229:3233   */\n      0xff\n        /* \"#utility.yul\":3222:3227   */\n      dup3\n        /* \"#utility.yul\":3218:3234   */\n      and\n        /* \"#utility.yul\":3207:3234   */\n      swap1\n      pop\n        /* \"#utility.yul\":3154:3240   */\n      swap2\n      swap1\n      pop\n      jump\t// out\n        /* \"#utility.yul\":3246:3364   */\n    tag_114:\n        /* \"#utility.yul\":3317:3339   */\n      tag_186\n        /* \"#utility.yul\":3333:3338   */\n      dup2\n        /* \"#utility.yul\":3317:3339   */\n      tag_113\n      jump\t// in\n    tag_186:\n        /* \"#utility.yul\":3310:3315   */\n      dup2\n        /* \"#utility.yul\":3307:3340   */\n      eq\n        /* \"#utility.yul\":3297:3358   */\n      tag_187\n      jumpi\n        /* \"#utility.yul\":3354:3355   */\n      0x00\n        /* \"#utility.yul\":3351:3352   */\n      dup1\n        /* \"#utility.yul\":3344:3356   */\n      revert\n        /* \"#utility.yul\":3297:3358   */\n    tag_187:\n        /* \"#utility.yul\":3246:3364   */\n      pop\n      jump\t// out\n        /* \"#utility.yul\":3370:3505   */\n    tag_115:\n        /* \"#utility.yul\":3414:3419   */\n      0x00\n        /* \"#utility.yul\":3452:3458   */\n      dup2\n        /* \"#utility.yul\":3439:3459   */\n      calldataload\n        /* \"#utility.yul\":3430:3459   */\n      swap1\n      pop\n        /* \"#utility.yul\":3468:3499   */\n      tag_189\n        /* \"#utility.yul\":3493:3498   */\n      dup2\n        /* \"#utility.yul\":3468:3499   */\n      tag_114\n      jump\t// in\n    tag_189:\n        /* \"#utility.yul\":3370:3505   */\n      swap3\n      swap2\n      pop\n      pop\n      jump\t// out\n        /* \"#utility.yul\":3511:3836   */\n    tag_17:\n        /* \"#utility.yul\":3568:3574   */\n      0x00\n        /* \"#utility.yul\":3617:3619   */\n      0x20\n        /* \"#utility.yul\":3605:3614   */\n      dup3\n        /* \"#utility.yul\":3596:3603   */\n      dup5\n        /* \"#utility.yul\":3592:3615   */\n      sub\n        /* \"#utility.yul\":3588:3620   */\n      slt\n        /* \"#utility.yul\":3585:3704   */\n      iszero\n      tag_191\n      jumpi\n        /* \"#utility.yul\":3623:3702   */\n      tag_192\n      tag_100\n      jump\t// in\n    tag_192:\n        /* \"#utility.yul\":3585:3704   */\n    tag_191:\n        /* \"#utility.yul\":3743:3744   */\n      0x00\n        /* \"#utility.yul\":3768:3819   */\n      tag_193\n        /* \"#utility.yul\":3811:3818   */\n      dup5\n        /* \"#utility.yul\":3802:3808   */\n      dup3\n        /* \"#utility.yul\":3791:3800   */\n      dup6\n        /* \"#utility.yul\":3787:3809   */\n      add\n        /* \"#utility.yul\":3768:3819   */\n      tag_115\n      jump\t// in\n    tag_193:\n        /* \"#utility.yul\":3758:3819   */\n      swap2\n      pop\n        /* \"#utility.yul\":3714:3829   */\n      pop\n        /* \"#utility.yul\":3511:3836   */\n      swap3\n      swap2\n      pop\n      pop\n      jump\t// out\n        /* \"#utility.yul\":3842:3932   */\n    tag_116:\n        /* \"#utility.yul\":3876:3883   */\n      0x00\n        /* \"#utility.yul\":3919:3924   */\n      dup2\n        /* \"#utility.yul\":3912:3925   */\n      iszero\n        /* \"#utility.yul\":3905:3926   */\n      iszero\n        /* \"#utility.yul\":3894:3926   */\n      swap1\n      pop\n        /* \"#utility.yul\":3842:3932   */\n      swap2\n      swap1\n      pop\n      jump\t// out\n        /* \"#utility.yul\":3938:4047   */\n    tag_117:\n        /* \"#utility.yul\":4019:4040   */\n      tag_196\n        /* \"#utility.yul\":4034:4039   */\n      dup2\n        /* \"#utility.yul\":4019:4040   */\n      tag_116\n      jump\t// in\n    tag_196:\n        /* \"#utility.yul\":4014:4017   */\n      dup3\n        /* \"#utility.yul\":4007:4041   */\n      mstore\n        /* \"#utility.yul\":3938:4047   */\n      pop\n      pop\n      jump\t// out\n        /* \"#utility.yul\":4053:4263   */\n    tag_23:\n        /* \"#utility.yul\":4140:4144   */\n      0x00\n        /* \"#utility.yul\":4178:4180   */\n      0x20\n        /* \"#utility.yul\":4167:4176   */\n      dup3\n        /* \"#utility.yul\":4163:4181   */\n      add\n        /* \"#utility.yul\":4155:4181   */\n      swap1\n      pop\n        /* \"#utility.yul\":4191:4256   */\n      tag_198\n        /* \"#utility.yul\":4253:4254   */\n      0x00\n        /* \"#utility.yul\":4242:4251   */\n      dup4\n        /* \"#utility.yul\":4238:4255   */\n      add\n        /* \"#utility.yul\":4229:4235   */\n      dup5\n        /* \"#utility.yul\":4191:4256   */\n      tag_117\n      jump\t// in\n    tag_198:\n        /* \"#utility.yul\":4053:4263   */\n      swap3\n      swap2\n      pop\n      pop\n      jump\t// out\n        /* \"#utility.yul\":4269:4438   */\n    tag_118:\n        /* \"#utility.yul\":4353:4364   */\n      0x00\n        /* \"#utility.yul\":4387:4393   */\n      dup3\n        /* \"#utility.yul\":4382:4385   */\n      dup3\n        /* \"#utility.yul\":4375:4394   */\n      mstore\n        /* \"#utility.yul\":4427:4431   */\n      0x20\n        /* \"#utility.yul\":4422:4425   */\n      dup3\n        /* \"#utility.yul\":4418:4432   */\n      add\n        /* \"#utility.yul\":4403:4432   */\n      swap1\n      pop\n        /* \"#utility.yul\":4269:4438   */\n      swap3\n      swap2\n      pop\n      pop\n      jump\t// out\n        /* \"#utility.yul\":4444:4668   */\n    tag_119:\n        /* \"#utility.yul\":4584:4618   */\n      0x4f6e6c7920746865206f776e65722063616e2063616c6c20746869732066756e\n        /* \"#utility.yul\":4580:4581   */\n      0x00\n        /* \"#utility.yul\":4572:4578   */\n      dup3\n        /* \"#utility.yul\":4568:4582   */\n      add\n        /* \"#utility.yul\":4561:4619   */\n      mstore\n        /* \"#utility.yul\":4653:4660   */\n      0x6374696f6e000000000000000000000000000000000000000000000000000000\n        /* \"#utility.yul\":4648:4650   */\n      0x20\n        /* \"#utility.yul\":4640:4646   */\n      dup3\n        /* \"#utility.yul\":4636:4651   */\n      add\n        /* \"#utility.yul\":4629:4661   */\n      mstore\n        /* \"#utility.yul\":4444:4668   */\n      pop\n      jump\t// out\n        /* \"#utility.yul\":4674:5040   */\n    tag_120:\n        /* \"#utility.yul\":4816:4819   */\n      0x00\n        /* \"#utility.yul\":4837:4904   */\n      tag_202\n        /* \"#utility.yul\":4901:4903   */\n      0x25\n        /* \"#utility.yul\":4896:4899   */\n      dup4\n        /* \"#utility.yul\":4837:4904   */\n      tag_118\n      jump\t// in\n    tag_202:\n        /* \"#utility.yul\":4830:4904   */\n      swap2\n      pop\n        /* \"#utility.yul\":4913:5006   */\n      tag_203\n        /* \"#utility.yul\":5002:5005   */\n      dup3\n        /* \"#utility.yul\":4913:5006   */\n      tag_119\n      jump\t// in\n    tag_203:\n        /* \"#utility.yul\":5031:5033   */\n      0x40\n        /* \"#utility.yul\":5026:5029   */\n      dup3\n        /* \"#utility.yul\":5022:5034   */\n      add\n        /* \"#utility.yul\":5015:5034   */\n      swap1\n      pop\n        /* \"#utility.yul\":4674:5040   */\n      swap2\n      swap1\n      pop\n      jump\t// out\n        /* \"#utility.yul\":5046:5465   */\n    tag_27:\n        /* \"#utility.yul\":5212:5216   */\n      0x00\n        /* \"#utility.yul\":5250:5252   */\n      0x20\n        /* \"#utility.yul\":5239:5248   */\n      dup3\n        /* \"#utility.yul\":5235:5253   */\n      add\n        /* \"#utility.yul\":5227:5253   */\n      swap1\n      pop\n        /* \"#utility.yul\":5299:5308   */\n      dup2\n        /* \"#utility.yul\":5293:5297   */\n      dup2\n        /* \"#utility.yul\":5289:5309   */\n      sub\n        /* \"#utility.yul\":5285:5286   */\n      0x00\n        /* \"#utility.yul\":5274:5283   */\n      dup4\n        /* \"#utility.yul\":5270:5287   */\n      add\n        /* \"#utility.yul\":5263:5310   */\n      mstore\n        /* \"#utility.yul\":5327:5458   */\n      tag_205\n        /* \"#utility.yul\":5453:5457   */\n      dup2\n        /* \"#utility.yul\":5327:5458   */\n      tag_120\n      jump\t// in\n    tag_205:\n        /* \"#utility.yul\":5319:5458   */\n      swap1\n      pop\n        /* \"#utility.yul\":5046:5465   */\n      swap2\n      swap1\n      pop\n      jump\t// out\n        /* \"#utility.yul\":5471:5570   */\n    tag_121:\n        /* \"#utility.yul\":5523:5529   */\n      0x00\n        /* \"#utility.yul\":5557:5562   */\n      dup2\n        /* \"#utility.yul\":5551:5563   */\n      mload\n        /* \"#utility.yul\":5541:5563   */\n      swap1\n      pop\n        /* \"#utility.yul\":5471:5570   */\n      swap2\n      swap1\n      pop\n      jump\t// out\n        /* \"#utility.yul\":5576:5756   */\n    tag_122:\n        /* \"#utility.yul\":5624:5701   */\n      0x4e487b7100000000000000000000000000000000000000000000000000000000\n        /* \"#utility.yul\":5621:5622   */\n      0x00\n        /* \"#utility.yul\":5614:5702   */\n      mstore\n        /* \"#utility.yul\":5721:5725   */\n      0x41\n        /* \"#utility.yul\":5718:5719   */\n      0x04\n        /* \"#utility.yul\":5711:5726   */\n      mstore\n        /* \"#utility.yul\":5745:5749   */\n      0x24\n        /* \"#utility.yul\":5742:5743   */\n      0x00\n        /* \"#utility.yul\":5735:5750   */\n      revert\n        /* \"#utility.yul\":5762:5942   */\n    tag_123:\n        /* \"#utility.yul\":5810:5887   */\n      0x4e487b7100000000000000000000000000000000000000000000000000000000\n        /* \"#utility.yul\":5807:5808   */\n      0x00\n        /* \"#utility.yul\":5800:5888   */\n      mstore\n        /* \"#utility.yul\":5907:5911   */\n      0x22\n        /* \"#utility.yul\":5904:5905   */\n      0x04\n        /* \"#utility.yul\":5897:5912   */\n      mstore\n        /* \"#utility.yul\":5931:5935   */\n      0x24\n        /* \"#utility.yul\":5928:5929   */\n      0x00\n        /* \"#utility.yul\":5921:5936   */\n      revert\n        /* \"#utility.yul\":5948:6268   */\n    tag_124:\n        /* \"#utility.yul\":5992:5998   */\n      0x00\n        /* \"#utility.yul\":6029:6030   */\n      0x02\n        /* \"#utility.yul\":6023:6027   */\n      dup3\n        /* \"#utility.yul\":6019:6031   */\n      div\n        /* \"#utility.yul\":6009:6031   */\n      swap1\n      pop\n        /* \"#utility.yul\":6076:6077   */\n      0x01\n        /* \"#utility.yul\":6070:6074   */\n      dup3\n        /* \"#utility.yul\":6066:6078   */\n      and\n        /* \"#utility.yul\":6097:6115   */\n      dup1\n        /* \"#utility.yul\":6087:6168   */\n      tag_210\n      jumpi\n        /* \"#utility.yul\":6153:6157   */\n      0x7f\n        /* \"#utility.yul\":6145:6151   */\n      dup3\n        /* \"#utility.yul\":6141:6158   */\n      and\n        /* \"#utility.yul\":6131:6158   */\n      swap2\n      pop\n        /* \"#utility.yul\":6087:6168   */\n    tag_210:\n        /* \"#utility.yul\":6215:6217   */\n      0x20\n        /* \"#utility.yul\":6207:6213   */\n      dup3\n        /* \"#utility.yul\":6204:6218   */\n      lt\n        /* \"#utility.yul\":6184:6202   */\n      dup2\n        /* \"#utility.yul\":6181:6219   */\n      sub\n        /* \"#utility.yul\":6178:6262   */\n      tag_211\n      jumpi\n        /* \"#utility.yul\":6234:6252   */\n      tag_212\n      tag_123\n      jump\t// in\n    tag_212:\n        /* \"#utility.yul\":6178:6262   */\n    tag_211:\n        /* \"#utility.yul\":5999:6268   */\n      pop\n        /* \"#utility.yul\":5948:6268   */\n      swap2\n      swap1\n      pop\n      jump\t// out\n        /* \"#utility.yul\":6274:6415   */\n    tag_125:\n        /* \"#utility.yul\":6323:6327   */\n      0x00\n        /* \"#utility.yul\":6346:6349   */\n      dup2\n        /* \"#utility.yul\":6338:6349   */\n      swap1\n      pop\n        /* \"#utility.yul\":6369:6372   */\n      dup2\n        /* \"#utility.yul\":6366:6367   */\n      0x00\n        /* \"#utility.yul\":6359:6373   */\n      mstore\n        /* \"#utility.yul\":6403:6407   */\n      0x20\n        /* \"#utility.yul\":6400:6401   */\n      0x00\n        /* \"#utility.yul\":6390:6408   */\n      keccak256\n        /* \"#utility.yul\":6382:6408   */\n      swap1\n      pop\n        /* \"#utility.yul\":6274:6415   */\n      swap2\n      swap1\n      pop\n      jump\t// out\n        /* \"#utility.yul\":6421:6514   */\n    tag_126:\n        /* \"#utility.yul\":6458:6464   */\n      0x00\n        /* \"#utility.yul\":6505:6507   */\n      0x20\n        /* \"#utility.yul\":6500:6502   */\n      0x1f\n        /* \"#utility.yul\":6493:6498   */\n      dup4\n        /* \"#utility.yul\":6489:6503   */\n      add\n        /* \"#utility.yul\":6485:6508   */\n      div\n        /* \"#utility.yul\":6475:6508   */\n      swap1\n      pop\n        /* \"#utility.yul\":6421:6514   */\n      swap2\n      swap1\n      pop\n      jump\t// out\n        /* \"#utility.yul\":6520:6627   */\n    tag_127:\n        /* \"#utility.yul\":6564:6572   */\n      0x00\n        /* \"#utility.yul\":6614:6619   */\n      dup3\n        /* \"#utility.yul\":6608:6612   */\n      dup3\n        /* \"#utility.yul\":6604:6620   */\n      shl\n        /* \"#utility.yul\":6583:6620   */\n      swap1\n      pop\n        /* \"#utility.yul\":6520:6627   */\n      swap3\n      swap2\n      pop\n      pop\n      jump\t// out\n        /* \"#utility.yul\":6633:7026   */\n    tag_128:\n        /* \"#utility.yul\":6702:6708   */\n      0x00\n        /* \"#utility.yul\":6752:6753   */\n      0x08\n        /* \"#utility.yul\":6740:6750   */\n      dup4\n        /* \"#utility.yul\":6736:6754   */\n      mul\n        /* \"#utility.yul\":6775:6872   */\n      tag_217\n        /* \"#utility.yul\":6805:6871   */\n      0xffffffffffffffffffffffffffffffffffffffffffffffffffffffffffffffff\n        /* \"#utility.yul\":6794:6803   */\n      dup3\n        /* \"#utility.yul\":6775:6872   */\n      tag_127\n      jump\t// in\n    tag_217:\n        /* \"#utility.yul\":6893:6932   */\n      tag_218\n        /* \"#utility.yul\":6923:6931   */\n      dup7\n        /* \"#utility.yul\":6912:6921   */\n      dup4\n        /* \"#utility.yul\":6893:6932   */\n      tag_127\n      jump\t// in\n    tag_218:\n        /* \"#utility.yul\":6881:6932   */\n      swap6\n      pop\n        /* \"#utility.yul\":6965:6969   */\n      dup1\n        /* \"#utility.yul\":6961:6970   */\n      not\n        /* \"#utility.yul\":6954:6959   */\n      dup5\n        /* \"#utility.yul\":6950:6971   */\n      and\n        /* \"#utility.yul\":6941:6971   */\n      swap4\n      pop\n        /* \"#utility.yul\":7014:7018   */\n      dup1\n        /* \"#utility.yul\":7004:7012   */\n      dup7\n        /* \"#utility.yul\":7000:7019   */\n      and\n        /* \"#utility.yul\":6993:6998   */\n      dup5\n        /* \"#utility.yul\":6990:7020   */\n      or\n        /* \"#utility.yul\":6980:7020   */\n      swap3\n      pop\n        /* \"#utility.yul\":6709:7026   */\n      pop\n      pop\n        /* \"#utility.yul\":6633:7026   */\n      swap4\n      swap3\n      pop\n      pop\n      pop\n      jump\t// out\n        /* \"#utility.yul\":7032:7092   */\n    tag_129:\n        /* \"#utility.yul\":7060:7063   */\n      0x00\n        /* \"#utility.yul\":7081:7086   */\n      dup2\n        /* \"#utility.yul\":7074:7086   */\n      swap1\n      pop\n        /* \"#utility.yul\":7032:7092   */\n      swap2\n      swap1\n      pop\n      jump\t// out\n        /* \"#utility.yul\":7098:7240   */\n    tag_130:\n        /* \"#utility.yul\":7148:7157   */\n      0x00\n        /* \"#utility.yul\":7181:7234   */\n      tag_221\n        /* \"#utility.yul\":7199:7233   */\n      tag_222\n        /* \"#utility.yul\":7208:7232   */\n      tag_223\n        /* \"#utility.yul\":7226:7231   */\n      dup5\n        /* \"#utility.yul\":7208:7232   */\n      tag_110\n      jump\t// in\n    tag_223:\n        /* \"#utility.yul\":7199:7233   */\n      tag_129\n      jump\t// in\n    tag_222:\n        /* \"#utility.yul\":7181:7234   */\n      tag_110\n      jump\t// in\n    tag_221:\n        /* \"#utility.yul\":7168:7234   */\n      swap1\n      pop\n        /* \"#utility.yul\":7098:7240   */\n      swap2\n      swap1\n      pop\n      jump\t// out\n        /* \"#utility.yul\":7246:7321   */\n    tag_131:\n        /* \"#utility.yul\":7289:7292   */\n      0x00\n        /* \"#utility.yul\":7310:7315   */\n      dup2\n        /* \"#utility.yul\":7303:7315   */\n      swap1\n      pop\n        /* \"#utility.yul\":7246:7321   */\n      swap2\n      swap1\n      pop\n      jump\t// out\n        /* \"#utility.yul\":7327:7596   */\n    tag_132:\n        /* \"#utility.yul\":7437:7476   */\n      tag_226\n        /* \"#utility.yul\":7468:7475   */\n      dup4\n        /* \"#utility.yul\":7437:7476   */\n      tag_130\n      jump\t// in\n    tag_226:\n        /* \"#utility.yul\":7498:7589   */\n      tag_227\n        /* \"#utility.yul\":7547:7588   */\n      tag_228\n        /* \"#utility.yul\":7571:7587   */\n      dup3\n        /* \"#utility.yul\":7547:7588   */\n      tag_131\n      jump\t// in\n    tag_228:\n        /* \"#utility.yul\":7539:7545   */\n      dup5\n        /* \"#utility.yul\":7532:7536   */\n      dup5\n        /* \"#utility.yul\":7526:7537   */\n      sload\n        /* \"#utility.yul\":7498:7589   */\n      tag_128\n      jump\t// in\n    tag_227:\n        /* \"#utility.yul\":7492:7496   */\n      dup3\n        /* \"#utility.yul\":7485:7590   */\n      sstore\n        /* \"#utility.yul\":7403:7596   */\n      pop\n        /* \"#utility.yul\":7327:7596   */\n      pop\n      pop\n      pop\n      jump\t// out\n        /* \"#utility.yul\":7602:7675   */\n    tag_133:\n        /* \"#utility.yul\":7647:7650   */\n      0x00\n        /* \"#utility.yul\":7602:7675   */\n      swap1\n      jump\t// out\n        /* \"#utility.yul\":7681:7870   */\n    tag_134:\n        /* \"#utility.yul\":7758:7790   */\n      tag_231\n      tag_133\n      jump\t// in\n    tag_231:\n        /* \"#utility.yul\":7799:7864   */\n      tag_232\n        /* \"#utility.yul\":7857:7863   */\n      dup2\n        /* \"#utility.yul\":7849:7855   */\n      dup5\n        /* \"#utility.yul\":7843:7847   */\n      dup5\n        /* \"#utility.yul\":7799:7864   */\n      tag_132\n      jump\t// in\n    tag_232:\n        /* \"#utility.yul\":7734:7870   */\n      pop\n        /* \"#utility.yul\":7681:7870   */\n      pop\n      pop\n      jump\t// out\n        /* \"#utility.yul\":7876:8062   */\n    tag_135:\n        /* \"#utility.yul\":7936:8056   */\n    tag_234:\n        /* \"#utility.yul\":7953:7956   */\n      dup2\n        /* \"#utility.yul\":7946:7951   */\n      dup2\n        /* \"#utility.yul\":7943:7957   */\n      lt\n        /* \"#utility.yul\":7936:8056   */\n      iszero\n      tag_236\n      jumpi\n        /* \"#utility.yul\":8007:8046   */\n      tag_237\n        /* \"#utility.yul\":8044:8045   */\n      0x00\n        /* \"#utility.yul\":8037:8042   */\n      dup3\n        /* \"#utility.yul\":8007:8046   */\n      tag_134\n      jump\t// in\n    tag_237:\n        /* \"#utility.yul\":7980:7981   */\n      0x01\n        /* \"#utility.yul\":7973:7978   */\n      dup2\n        /* \"#utility.yul\":7969:7982   */\n      add\n        /* \"#utility.yul\":7960:7982   */\n      swap1\n      pop\n        /* \"#utility.yul\":7936:8056   */\n      jump(tag_234)\n    tag_236:\n        /* \"#utility.yul\":7876:8062   */\n      pop\n      pop\n      jump\t// out\n        /* \"#utility.yul\":8068:8611   */\n    tag_136:\n        /* \"#utility.yul\":8169:8171   */\n      0x1f\n        /* \"#utility.yul\":8164:8167   */\n      dup3\n        /* \"#utility.yul\":8161:8172   */\n      gt\n        /* \"#utility.yul\":8158:8604   */\n      iszero\n      tag_239\n      jumpi\n        /* \"#utility.yul\":8203:8241   */\n      tag_240\n        /* \"#utility.yul\":8235:8240   */\n      dup2\n        /* \"#utility.yul\":8203:8241   */\n      tag_125\n      jump\t// in\n    tag_240:\n        /* \"#utility.yul\":8287:8316   */\n      tag_241\n        /* \"#utility.yul\":8305:8315   */\n      dup5\n        /* \"#utility.yul\":8287:8316   */\n      tag_126\n      jump\t// in\n    tag_241:\n        /* \"#utility.yul\":8277:8285   */\n      dup2\n        /* \"#utility.yul\":8273:8317   */\n      add\n        /* \"#utility.yul\":8470:8472   */\n      0x20\n        /* \"#utility.yul\":8458:8468   */\n      dup6\n        /* \"#utility.yul\":8455:8473   */\n      lt\n        /* \"#utility.yul\":8452:8501   */\n      iszero\n      tag_242\n      jumpi\n        /* \"#utility.yul\":8491:8499   */\n      dup2\n        /* \"#utility.yul\":8476:8499   */\n      swap1\n      pop\n        /* \"#utility.yul\":8452:8501   */\n    tag_242:\n        /* \"#utility.yul\":8514:8594   */\n      tag_243\n        /* \"#utility.yul\":8570:8592   */\n      tag_244\n        /* \"#utility.yul\":8588:8591   */\n      dup6\n        /* \"#utility.yul\":8570:8592   */\n      tag_126\n      jump\t// in\n    tag_244:\n        /* \"#utility.yul\":8560:8568   */\n      dup4\n        /* \"#utility.yul\":8556:8593   */\n      add\n        /* \"#utility.yul\":8543:8554   */\n      dup3\n        /* \"#utility.yul\":8514:8594   */\n      tag_135\n      jump\t// in\n    tag_243:\n        /* \"#utility.yul\":8173:8604   */\n      pop\n      pop\n        /* \"#utility.yul\":8158:8604   */\n    tag_239:\n        /* \"#utility.yul\":8068:8611   */\n      pop\n      pop\n      pop\n      jump\t// out\n        /* \"#utility.yul\":8617:8734   */\n    tag_137:\n        /* \"#utility.yul\":8671:8679   */\n      0x00\n        /* \"#utility.yul\":8721:8726   */\n      dup3\n        /* \"#utility.yul\":8715:8719   */\n      dup3\n        /* \"#utility.yul\":8711:8727   */\n      shr\n        /* \"#utility.yul\":8690:8727   */\n      swap1\n      pop\n        /* \"#utility.yul\":8617:8734   */\n      swap3\n      swap2\n      pop\n      pop\n      jump\t// out\n        /* \"#utility.yul\":8740:8909   */\n    tag_138:\n        /* \"#utility.yul\":8784:8790   */\n      0x00\n        /* \"#utility.yul\":8817:8868   */\n      tag_247\n        /* \"#utility.yul\":8865:8866   */\n      0x00\n        /* \"#utility.yul\":8861:8867   */\n      not\n        /* \"#utility.yul\":8853:8858   */\n      dup5\n        /* \"#utility.yul\":8850:8851   */\n      0x08\n        /* \"#utility.yul\":8846:8859   */\n      mul\n        /* \"#utility.yul\":8817:8868   */\n      tag_137\n      jump\t// in\n    tag_247:\n        /* \"#utility.yul\":8813:8869   */\n      not\n        /* \"#utility.yul\":8898:8902   */\n      dup1\n        /* \"#utility.yul\":8892:8896   */\n      dup4\n        /* \"#utility.yul\":8888:8903   */\n      and\n        /* \"#utility.yul\":8878:8903   */\n      swap2\n      pop\n        /* \"#utility.yul\":8791:8909   */\n      pop\n        /* \"#utility.yul\":8740:8909   */\n      swap3\n      swap2\n      pop\n      pop\n      jump\t// out\n        /* \"#utility.yul\":8914:9209   */\n    tag_139:\n        /* \"#utility.yul\":8990:8994   */\n      0x00\n        /* \"#utility.yul\":9136:9165   */\n      tag_249\n        /* \"#utility.yul\":9161:9164   */\n      dup4\n        /* \"#utility.yul\":9155:9159   */\n      dup4\n        /* \"#utility.yul\":9136:9165   */\n      tag_138\n      jump\t// in\n    tag_249:\n        /* \"#utility.yul\":9128:9165   */\n      swap2\n      pop\n        /* \"#utility.yul\":9198:9201   */\n      dup3\n        /* \"#utility.yul\":9195:9196   */\n      0x02\n        /* \"#utility.yul\":9191:9202   */\n      mul\n        /* \"#utility.yul\":9185:9189   */\n      dup3\n        /* \"#utility.yul\":9182:9203   */\n      or\n        /* \"#utility.yul\":9174:9203   */\n      swap1\n      pop\n        /* \"#utility.yul\":8914:9209   */\n      swap3\n      swap2\n      pop\n      pop\n      jump\t// out\n        /* \"#utility.yul\":9214:10609   */\n    tag_38:\n        /* \"#utility.yul\":9331:9368   */\n      tag_251\n        /* \"#utility.yul\":9364:9367   */\n      dup3\n        /* \"#utility.yul\":9331:9368   */\n      tag_121\n      jump\t// in\n    tag_251:\n        /* \"#utility.yul\":9433:9451   */\n      0xffffffffffffffff\n        /* \"#utility.yul\":9425:9431   */\n      dup2\n        /* \"#utility.yul\":9422:9452   */\n      gt\n        /* \"#utility.yul\":9419:9475   */\n      iszero\n      tag_252\n      jumpi\n        /* \"#utility.yul\":9455:9473   */\n      tag_253\n      tag_122\n      jump\t// in\n    tag_253:\n        /* \"#utility.yul\":9419:9475   */\n    tag_252:\n        /* \"#utility.yul\":9499:9537   */\n      tag_254\n        /* \"#utility.yul\":9531:9535   */\n      dup3\n        /* \"#utility.yul\":9525:9536   */\n      sload\n        /* \"#utility.yul\":9499:9537   */\n      tag_124\n      jump\t// in\n    tag_254:\n        /* \"#utility.yul\":9584:9651   */\n      tag_255\n        /* \"#utility.yul\":9644:9650   */\n      dup3\n        /* \"#utility.yul\":9636:9642   */\n      dup3\n        /* \"#utility.yul\":9630:9634   */\n      dup6\n        /* \"#utility.yul\":9584:9651   */\n      tag_136\n      jump\t// in\n    tag_255:\n        /* \"#utility.yul\":9678:9679   */\n      0x00\n        /* \"#utility.yul\":9702:9706   */\n      0x20\n        /* \"#utility.yul\":9689:9706   */\n      swap1\n      pop\n        /* \"#utility.yul\":9734:9736   */\n      0x1f\n        /* \"#utility.yul\":9726:9732   */\n      dup4\n        /* \"#utility.yul\":9723:9737   */\n      gt\n        /* \"#utility.yul\":9751:9752   */\n      0x01\n        /* \"#utility.yul\":9746:10364   */\n      dup2\n      eq\n      tag_257\n      jumpi\n        /* \"#utility.yul\":10408:10409   */\n      0x00\n        /* \"#utility.yul\":10425:10431   */\n      dup5\n        /* \"#utility.yul\":10422:10499   */\n      iszero\n      tag_258\n      jumpi\n        /* \"#utility.yul\":10474:10483   */\n      dup3\n        /* \"#utility.yul\":10469:10472   */\n      dup8\n        /* \"#utility.yul\":10465:10484   */\n      add\n        /* \"#utility.yul\":10459:10485   */\n      mload\n        /* \"#utility.yul\":10450:10485   */\n      swap1\n      pop\n        /* \"#utility.yul\":10422:10499   */\n    tag_258:\n        /* \"#utility.yul\":10525:10592   */\n      tag_259\n        /* \"#utility.yul\":10585:10591   */\n      dup6\n        /* \"#utility.yul\":10578:10583   */\n      dup3\n        /* \"#utility.yul\":10525:10592   */\n      tag_139\n      jump\t// in\n    tag_259:\n        /* \"#utility.yul\":10519:10523   */\n      dup7\n        /* \"#utility.yul\":10512:10593   */\n      sstore\n        /* \"#utility.yul\":10381:10603   */\n      pop\n        /* \"#utility.yul\":9716:10603   */\n      jump(tag_256)\n        /* \"#utility.yul\":9746:10364   */\n    tag_257:\n        /* \"#utility.yul\":9798:9802   */\n      0x1f\n        /* \"#utility.yul\":9794:9803   */\n      not\n        /* \"#utility.yul\":9786:9792   */\n      dup5\n        /* \"#utility.yul\":9782:9804   */\n      and\n        /* \"#utility.yul\":9832:9869   */\n      tag_260\n        /* \"#utility.yul\":9864:9868   */\n      dup7\n        /* \"#utility.yul\":9832:9869   */\n      tag_125\n      jump\t// in\n    tag_260:\n        /* \"#utility.yul\":9891:9892   */\n      0x00\n        /* \"#utility.yul\":9905:10113   */\n    tag_261:\n        /* \"#utility.yul\":9919:9926   */\n      dup3\n        /* \"#utility.yul\":9916:9917   */\n      dup2\n        /* \"#utility.yul\":9913:9927   */\n      lt\n        /* \"#utility.yul\":9905:10113   */\n      iszero\n      tag_263\n      jumpi\n        /* \"#utility.yul\":9998:10007   */\n      dup5\n        /* \"#utility.yul\":9993:9996   */\n      dup10\n        /* \"#utility.yul\":9989:10008   */\n      add\n        /* \"#utility.yul\":9983:10009   */\n      mload\n        /* \"#utility.yul\":9975:9981   */\n      dup3\n        /* \"#utility.yul\":9968:10010   */\n      sstore\n        /* \"#utility.yul\":10049:10050   */\n      0x01\n        /* \"#utility.yul\":10041:10047   */\n      dup3\n        /* \"#utility.yul\":10037:10051   */\n      add\n        /* \"#utility.yul\":10027:10051   */\n      swap2\n      pop\n        /* \"#utility.yul\":10096:10098   */\n      0x20\n        /* \"#utility.yul\":10085:10094   */\n      dup6\n        /* \"#utility.yul\":10081:10099   */\n      add\n        /* \"#utility.yul\":10068:10099   */\n      swap5\n      pop\n        /* \"#utility.yul\":9942:9946   */\n      0x20\n        /* \"#utility.yul\":9939:9940   */\n      dup2\n        /* \"#utility.yul\":9935:9947   */\n      add\n        /* \"#utility.yul\":9930:9947   */\n      swap1\n      pop\n        /* \"#utility.yul\":9905:10113   */\n      jump(tag_261)\n    tag_263:\n        /* \"#utility.yul\":10141:10147   */\n      dup7\n        /* \"#utility.yul\":10132:10139   */\n      dup4\n        /* \"#utility.yul\":10129:10148   */\n      lt\n        /* \"#utility.yul\":10126:10305   */\n      iszero\n      tag_264\n      jumpi\n        /* \"#utility.yul\":10199:10208   */\n      dup5\n        /* \"#utility.yul\":10194:10197   */\n      dup10\n        /* \"#utility.yul\":10190:10209   */\n      add\n        /* \"#utility.yul\":10184:10210   */\n      mload\n        /* \"#utility.yul\":10242:10290   */\n      tag_265\n        /* \"#utility.yul\":10284:10288   */\n      0x1f\n        /* \"#utility.yul\":10276:10282   */\n      dup10\n        /* \"#utility.yul\":10272:10289   */\n      and\n        /* \"#utility.yul\":10261:10270   */\n      dup3\n        /* \"#utility.yul\":10242:10290   */\n      tag_138\n      jump\t// in\n    tag_265:\n        /* \"#utility.yul\":10234:10240   */\n      dup4\n        /* \"#utility.yul\":10227:10291   */\n      sstore\n        /* \"#utility.yul\":10149:10305   */\n      pop\n        /* \"#utility.yul\":10126:10305   */\n    tag_264:\n        /* \"#utility.yul\":10351:10352   */\n      0x01\n        /* \"#utility.yul\":10347:10348   */\n      0x02\n        /* \"#utility.yul\":10339:10345   */\n      dup9\n        /* \"#utility.yul\":10335:10349   */\n      mul\n        /* \"#utility.yul\":10331:10353   */\n      add\n        /* \"#utility.yul\":10325:10329   */\n      dup9\n        /* \"#utility.yul\":10318:10354   */\n      sstore\n        /* \"#utility.yul\":9753:10364   */\n      pop\n      pop\n      pop\n        /* \"#utility.yul\":9716:10603   */\n    tag_256:\n      pop\n        /* \"#utility.yul\":9306:10609   */\n      pop\n      pop\n      pop\n        /* \"#utility.yul\":9214:10609   */\n      pop\n      pop\n      jump\t// out\n        /* \"#utility.yul\":10615:10787   */\n    tag_140:\n        /* \"#utility.yul\":10755:10779   */\n      0x50726f706f73616c206973206e6f742061637469766500000000000000000000\n        /* \"#utility.yul\":10751:10752   */\n      0x00\n        /* \"#utility.yul\":10743:10749   */\n      dup3\n        /* \"#utility.yul\":10739:10753   */\n      add\n        /* \"#utility.yul\":10732:10780   */\n      mstore\n        /* \"#utility.yul\":10615:10787   */\n      pop\n      jump\t// out\n        /* \"#utility.yul\":10793:11159   */\n    tag_141:\n        /* \"#utility.yul\":10935:10938   */\n      0x00\n        /* \"#utility.yul\":10956:11023   */\n      tag_268\n        /* \"#utility.yul\":11020:11022   */\n      0x16\n        /* \"#utility.yul\":11015:11018   */\n      dup4\n        /* \"#utility.yul\":10956:11023   */\n      tag_118\n      jump\t// in\n    tag_268:\n        /* \"#utility.yul\":10949:11023   */\n      swap2\n      pop\n        /* \"#utility.yul\":11032:11125   */\n      tag_269\n        /* \"#utility.yul\":11121:11124   */\n      dup3\n        /* \"#utility.yul\":11032:11125   */\n      tag_140\n      jump\t// in\n    tag_269:\n        /* \"#utility.yul\":11150:11152   */\n      0x20\n        /* \"#utility.yul\":11145:11148   */\n      dup3\n        /* \"#utility.yul\":11141:11153   */\n      add\n        /* \"#utility.yul\":11134:11153   */\n      swap1\n      pop\n        /* \"#utility.yul\":10793:11159   */\n      swap2\n      swap1\n      pop\n      jump\t// out\n        /* \"#utility.yul\":11165:11584   */\n    tag_43:\n        /* \"#utility.yul\":11331:11335   */\n      0x00\n        /* \"#utility.yul\":11369:11371   */\n      0x20\n        /* \"#utility.yul\":11358:11367   */\n      dup3\n        /* \"#utility.yul\":11354:11372   */\n      add\n        /* \"#utility.yul\":11346:11372   */\n      swap1\n      pop\n        /* \"#utility.yul\":11418:11427   */\n      dup2\n        /* \"#utility.yul\":11412:11416   */\n      dup2\n        /* \"#utility.yul\":11408:11428   */\n      sub\n        /* \"#utility.yul\":11404:11405   */\n      0x00\n        /* \"#utility.yul\":11393:11402   */\n      dup4\n        /* \"#utility.yul\":11389:11406   */\n      add\n        /* \"#utility.yul\":11382:11429   */\n      mstore\n        /* \"#utility.yul\":11446:11577   */\n      tag_271\n        /* \"#utility.yul\":11572:11576   */\n      dup2\n        /* \"#utility.yul\":11446:11577   */\n      tag_141\n      jump\t// in\n    tag_271:\n        /* \"#utility.yul\":11438:11577   */\n      swap1\n      pop\n        /* \"#utility.yul\":11165:11584   */\n      swap2\n      swap1\n      pop\n      jump\t// out\n        /* \"#utility.yul\":11590:11765   */\n    tag_142:\n        /* \"#utility.yul\":11730:11757   */\n      0x416464726573732068617320616c726561647920766f74656400000000000000\n        /* \"#utility.yul\":11726:11727   */\n      0x00\n        /* \"#utility.yul\":11718:11724   */\n      dup3\n        /* \"#utility.yul\":11714:11728   */\n      add\n        /* \"#utility.yul\":11707:11758   */\n      mstore\n        /* \"#utility.yul\":11590:11765   */\n      pop\n      jump\t// out\n        /* \"#utility.yul\":11771:12137   */\n    tag_143:\n        /* \"#utility.yul\":11913:11916   */\n      0x00\n        /* \"#utility.yul\":11934:12001   */\n      tag_274\n        /* \"#utility.yul\":11998:12000   */\n      0x19\n        /* \"#utility.yul\":11993:11996   */\n      dup4\n        /* \"#utility.yul\":11934:12001   */\n      tag_118\n      jump\t// in\n    tag_274:\n        /* \"#utility.yul\":11927:12001   */\n      swap2\n      pop\n        /* \"#utility.yul\":12010:12103   */\n      tag_275\n        /* \"#utility.yul\":12099:12102   */\n      dup3\n        /* \"#utility.yul\":12010:12103   */\n      tag_142\n      jump\t// in\n    tag_275:\n        /* \"#utility.yul\":12128:12130   */\n      0x20\n        /* \"#utility.yul\":12123:12126   */\n      dup3\n        /* \"#utility.yul\":12119:12131   */\n      add\n        /* \"#utility.yul\":12112:12131   */\n      swap1\n      pop\n        /* \"#utility.yul\":11771:12137   */\n      swap2\n      swap1\n      pop\n      jump\t// out\n        /* \"#utility.yul\":12143:12562   */\n    tag_48:\n        /* \"#utility.yul\":12309:12313   */\n      0x00\n        /* \"#utility.yul\":12347:12349   */\n      0x20\n        /* \"#utility.yul\":12336:12345   */\n      dup3\n        /* \"#utility.yul\":12332:12350   */\n      add\n        /* \"#utility.yul\":12324:12350   */\n      swap1\n      pop\n        /* \"#utility.yul\":12396:12405   */\n      dup2\n        /* \"#utility.yul\":12390:12394   */\n      dup2\n        /* \"#utility.yul\":12386:12406   */\n      sub\n        /* \"#utility.yul\":12382:12383   */\n      0x00\n        /* \"#utility.yul\":12371:12380   */\n      dup4\n        /* \"#utility.yul\":12367:12384   */\n      add\n        /* \"#utility.yul\":12360:12407   */\n      mstore\n        /* \"#utility.yul\":12424:12555   */\n      tag_277\n        /* \"#utility.yul\":12550:12554   */\n      dup2\n        /* \"#utility.yul\":12424:12555   */\n      tag_143\n      jump\t// in\n    tag_277:\n        /* \"#utility.yul\":12416:12555   */\n      swap1\n      pop\n        /* \"#utility.yul\":12143:12562   */\n      swap2\n      swap1\n      pop\n      jump\t// out\n        /* \"#utility.yul\":12568:12748   */\n    tag_144:\n        /* \"#utility.yul\":12616:12693   */\n      0x4e487b7100000000000000000000000000000000000000000000000000000000\n        /* \"#utility.yul\":12613:12614   */\n      0x00\n        /* \"#utility.yul\":12606:12694   */\n      mstore\n        /* \"#utility.yul\":12713:12717   */\n      0x11\n        /* \"#utility.yul\":12710:12711   */\n      0x04\n        /* \"#utility.yul\":12703:12718   */\n      mstore\n        /* \"#utility.yul\":12737:12741   */\n      0x24\n        /* \"#utility.yul\":12734:12735   */\n      0x00\n        /* \"#utility.yul\":12727:12742   */\n      revert\n        /* \"#utility.yul\":12754:12945   */\n    tag_52:\n        /* \"#utility.yul\":12794:12797   */\n      0x00\n        /* \"#utility.yul\":12813:12833   */\n      tag_280\n        /* \"#utility.yul\":12831:12832   */\n      dup3\n        /* \"#utility.yul\":12813:12833   */\n      tag_110\n      jump\t// in\n    tag_280:\n        /* \"#utility.yul\":12808:12833   */\n      swap2\n      pop\n        /* \"#utility.yul\":12847:12867   */\n      tag_281\n        /* \"#utility.yul\":12865:12866   */\n      dup4\n        /* \"#utility.yul\":12847:12867   */\n      tag_110\n      jump\t// in\n    tag_281:\n        /* \"#utility.yul\":12842:12867   */\n      swap3\n      pop\n        /* \"#utility.yul\":12890:12891   */\n      dup3\n        /* \"#utility.yul\":12887:12888   */\n      dup3\n        /* \"#utility.yul\":12883:12892   */\n      add\n        /* \"#utility.yul\":12876:12892   */\n      swap1\n      pop\n        /* \"#utility.yul\":12911:12914   */\n      dup1\n        /* \"#utility.yul\":12908:12909   */\n      dup3\n        /* \"#utility.yul\":12905:12915   */\n      gt\n        /* \"#utility.yul\":12902:12938   */\n      iszero\n      tag_282\n      jumpi\n        /* \"#utility.yul\":12918:12936   */\n      tag_283\n      tag_144\n      jump\t// in\n    tag_283:\n        /* \"#utility.yul\":12902:12938   */\n    tag_282:\n        /* \"#utility.yul\":12754:12945   */\n      swap3\n      swap2\n      pop\n      pop\n      jump\t// out\n        /* \"#utility.yul\":12951:13145   */\n    tag_68:\n        /* \"#utility.yul\":12991:12995   */\n      0x00\n        /* \"#utility.yul\":13011:13031   */\n      tag_285\n        /* \"#utility.yul\":13029:13030   */\n      dup3\n        /* \"#utility.yul\":13011:13031   */\n      tag_110\n      jump\t// in\n    tag_285:\n        /* \"#utility.yul\":13006:13031   */\n      swap2\n      pop\n        /* \"#utility.yul\":13045:13065   */\n      tag_286\n        /* \"#utility.yul\":13063:13064   */\n      dup4\n        /* \"#utility.yul\":13045:13065   */\n      tag_110\n      jump\t// in\n    tag_286:\n        /* \"#utility.yul\":13040:13065   */\n      swap3\n      pop\n        /* \"#utility.yul\":13089:13090   */\n      dup3\n        /* \"#utility.yul\":13086:13087   */\n      dup3\n        /* \"#utility.yul\":13082:13091   */\n      sub\n        /* \"#utility.yul\":13074:13091   */\n      swap1\n      pop\n        /* \"#utility.yul\":13113:13114   */\n      dup2\n        /* \"#utility.yul\":13107:13111   */\n      dup2\n        /* \"#utility.yul\":13104:13115   */\n      gt\n        /* \"#utility.yul\":13101:13138   */\n      iszero\n      tag_287\n      jumpi\n        /* \"#utility.yul\":13118:13136   */\n      tag_288\n      tag_144\n      jump\t// in\n    tag_288:\n        /* \"#utility.yul\":13101:13138   */\n    tag_287:\n        /* \"#utility.yul\":12951:13145   */\n      swap3\n      swap2\n      pop\n      pop\n      jump\t// out\n        /* \"#utility.yul\":13151:13331   */\n    tag_81:\n        /* \"#utility.yul\":13199:13276   */\n      0x4e487b7100000000000000000000000000000000000000000000000000000000\n        /* \"#utility.yul\":13196:13197   */\n      0x00\n        /* \"#utility.yul\":13189:13277   */\n      mstore\n        /* \"#utility.yul\":13296:13300   */\n      0x32\n        /* \"#utility.yul\":13293:13294   */\n      0x04\n        /* \"#utility.yul\":13286:13301   */\n      mstore\n        /* \"#utility.yul\":13320:13324   */\n      0x24\n        /* \"#utility.yul\":13317:13318   */\n      0x00\n        /* \"#utility.yul\":13310:13325   */\n      revert\n        /* \"#utility.yul\":13337:13747   */\n    tag_89:\n        /* \"#utility.yul\":13377:13384   */\n      0x00\n        /* \"#utility.yul\":13400:13420   */\n      tag_291\n        /* \"#utility.yul\":13418:13419   */\n      dup3\n        /* \"#utility.yul\":13400:13420   */\n      tag_110\n      jump\t// in\n    tag_291:\n        /* \"#utility.yul\":13395:13420   */\n      swap2\n      pop\n        /* \"#utility.yul\":13434:13454   */\n      tag_292\n        /* \"#utility.yul\":13452:13453   */\n      dup4\n        /* \"#utility.yul\":13434:13454   */\n      tag_110\n      jump\t// in\n    tag_292:\n        /* \"#utility.yul\":13429:13454   */\n      swap3\n      pop\n        /* \"#utility.yul\":13489:13490   */\n      dup3\n        /* \"#utility.yul\":13486:13487   */\n      dup3\n        /* \"#utility.yul\":13482:13491   */\n      mul\n        /* \"#utility.yul\":13511:13541   */\n      tag_293\n        /* \"#utility.yul\":13529:13540   */\n      dup2\n        /* \"#utility.yul\":13511:13541   */\n      tag_110\n      jump\t// in\n    tag_293:\n        /* \"#utility.yul\":13500:13541   */\n      swap2\n      pop\n        /* \"#utility.yul\":13690:13691   */\n      dup3\n        /* \"#utility.yul\":13681:13688   */\n      dup3\n        /* \"#utility.yul\":13677:13692   */\n      div\n        /* \"#utility.yul\":13674:13675   */\n      dup5\n        /* \"#utility.yul\":13671:13693   */\n      eq\n        /* \"#utility.yul\":13651:13652   */\n      dup4\n        /* \"#utility.yul\":13644:13653   */\n      iszero\n        /* \"#utility.yul\":13624:13707   */\n      or\n        /* \"#utility.yul\":13601:13740   */\n      tag_294\n      jumpi\n        /* \"#utility.yul\":13720:13738   */\n      tag_295\n      tag_144\n      jump\t// in\n    tag_295:\n        /* \"#utility.yul\":13601:13740   */\n    tag_294:\n        /* \"#utility.yul\":13385:13747   */\n      pop\n        /* \"#utility.yul\":13337:13747   */\n      swap3\n      swap2\n      pop\n      pop\n      jump\t// out\n\n    auxdata: 0xa264697066735822122091109f0d92776fb283434fa7d1aa0ecb186bc0934dccfc1d55de80beb4ab438664736f6c63430008160033\n}\n",
				"bytecode": {
					"linkReferences": {},
					"object": "608060405234801561000f575f80fd5b50335f806101000a81548173ffffffffffffffffffffffffffffffffffffffff021916908373ffffffffffffffffffffffffffffffffffffffff160217905550600333908060018154018082558091505060019003905f5260205f20015f9091909190916101000a81548173ffffffffffffffffffffffffffffffffffffffff021916908373ffffffffffffffffffffffffffffffffffffffff160217905550610fde806100bc5f395ff3fe608060405234801561000f575f80fd5b506004361061004a575f3560e01c806313af40351461004e57806346f81a871461006a578063b3f98adc14610086578063cbff75cb146100a2575b5f80fd5b61006860048036038101906100639190610889565b6100d2565b005b610084600480360381019061007f9190610948565b6101a1565b005b6100a0600480360381019061009b91906109db565b610350565b005b6100bc60048036038101906100b79190610889565b610662565b6040516100c99190610a20565b60405180910390f35b5f8054906101000a900473ffffffffffffffffffffffffffffffffffffffff1673ffffffffffffffffffffffffffffffffffffffff163373ffffffffffffffffffffffffffffffffffffffff161461015f576040517f08c379a000000000000000000000000000000000000000000000000000000000815260040161015690610ab9565b60405180910390fd5b805f806101000a81548173ffffffffffffffffffffffffffffffffffffffff021916908373ffffffffffffffffffffffffffffffffffffffff16021790555050565b5f8054906101000a900473ffffffffffffffffffffffffffffffffffffffff1673ffffffffffffffffffffffffffffffffffffffff163373ffffffffffffffffffffffffffffffffffffffff161461022e576040517f08c379a000000000000000000000000000000000000000000000000000000000815260040161022590610ab9565b60405180910390fd5b6102386001610704565b6040518060e0016040528084848080601f0160208091040260200160405190810160405280939291908181526020018383808284375f81840152601f19601f8201169050808301925050505050505081526020015f81526020015f81526020015f81526020018281526020015f151581526020016001151581525060025f6102c06001610718565b81526020019081526020015f205f820151815f0190816102e09190610d08565b506020820151816001015560408201518160020155606082015181600301556080820151816004015560a0820151816005015f6101000a81548160ff02191690831515021790555060c08201518160050160016101000a81548160ff021916908315150217905550905050505050565b6001151560025f6103616001610718565b81526020019081526020015f2060050160019054906101000a900460ff161515146103c1576040517f08c379a00000000000000000000000000000000000000000000000000000000081526004016103b890610e21565b60405180910390fd5b336103cb81610662565b1561040b576040517f08c379a000000000000000000000000000000000000000000000000000000000815260040161040290610e89565b60405180910390fd5b5f60025f6104196001610718565b81526020019081526020015f2090505f8160030154826002015483600101546104429190610ed4565b61044c9190610ed4565b9050600333908060018154018082558091505060019003905f5260205f20015f9091909190916101000a81548173ffffffffffffffffffffffffffffffffffffffff021916908373ffffffffffffffffffffffffffffffffffffffff16021790555060018460ff16036104fb576001826001015f8282546104cd9190610ed4565b925050819055506104dc610724565b826005015f6101000a81548160ff021916908315150217905550610592565b60028460ff1603610548576001826002015f82825461051a9190610ed4565b92505081905550610529610724565b826005015f6101000a81548160ff021916908315150217905550610591565b5f8460ff1603610590576001826003015f8282546105669190610ed4565b92505081905550610575610724565b826005015f6101000a81548160ff0219169083151502179055505b5b5b60018183600401546105a49190610f07565b1480156105cf575060018460ff1614806105c1575060028460ff16145b806105ce57505f8460ff16145b5b1561065c575f8260050160016101000a81548160ff02191690831515021790555060405180602001604052805f8054906101000a900473ffffffffffffffffffffffffffffffffffffffff1673ffffffffffffffffffffffffffffffffffffffff1673ffffffffffffffffffffffffffffffffffffffff16815250600390600161065a929190610785565b505b50505050565b5f805f90505b6003805490508110156106fa578273ffffffffffffffffffffffffffffffffffffffff16600382815481106106a05761069f610f3a565b5b905f5260205f20015f9054906101000a900473ffffffffffffffffffffffffffffffffffffffff1673ffffffffffffffffffffffffffffffffffffffff16036106ed5760019150506106ff565b8080600101915050610668565b505f90505b919050565b6001815f015f828254019250508190555050565b5f815f01549050919050565b5f8060025f6107336001610718565b81526020019081526020015f2090505f816001015490505f826002015490505f836003015490508160026107679190610f67565b831061077a576001945050505050610782565b5f9450505050505b90565b828054828255905f5260205f209081019282156107fb579160200282015b828111156107fa578251825f6101000a81548173ffffffffffffffffffffffffffffffffffffffff021916908373ffffffffffffffffffffffffffffffffffffffff160217905550916020019190600101906107a3565b5b509050610808919061080c565b5090565b5b80821115610823575f815f90555060010161080d565b5090565b5f80fd5b5f80fd5b5f73ffffffffffffffffffffffffffffffffffffffff82169050919050565b5f6108588261082f565b9050919050565b6108688161084e565b8114610872575f80fd5b50565b5f813590506108838161085f565b92915050565b5f6020828403121561089e5761089d610827565b5b5f6108ab84828501610875565b91505092915050565b5f80fd5b5f80fd5b5f80fd5b5f8083601f8401126108d5576108d46108b4565b5b8235905067ffffffffffffffff8111156108f2576108f16108b8565b5b60208301915083600182028301111561090e5761090d6108bc565b5b9250929050565b5f819050919050565b61092781610915565b8114610931575f80fd5b50565b5f813590506109428161091e565b92915050565b5f805f6040848603121561095f5761095e610827565b5b5f84013567ffffffffffffffff81111561097c5761097b61082b565b5b610988868287016108c0565b9350935050602061099b86828701610934565b9150509250925092565b5f60ff82169050919050565b6109ba816109a5565b81146109c4575f80fd5b50565b5f813590506109d5816109b1565b92915050565b5f602082840312156109f0576109ef610827565b5b5f6109fd848285016109c7565b91505092915050565b5f8115159050919050565b610a1a81610a06565b82525050565b5f602082019050610a335f830184610a11565b92915050565b5f82825260208201905092915050565b7f4f6e6c7920746865206f776e65722063616e2063616c6c20746869732066756e5f8201527f6374696f6e000000000000000000000000000000000000000000000000000000602082015250565b5f610aa3602583610a39565b9150610aae82610a49565b604082019050919050565b5f6020820190508181035f830152610ad081610a97565b9050919050565b5f81519050919050565b7f4e487b71000000000000000000000000000000000000000000000000000000005f52604160045260245ffd5b7f4e487b71000000000000000000000000000000000000000000000000000000005f52602260045260245ffd5b5f6002820490506001821680610b5257607f821691505b602082108103610b6557610b64610b0e565b5b50919050565b5f819050815f5260205f209050919050565b5f6020601f8301049050919050565b5f82821b905092915050565b5f60088302610bc77fffffffffffffffffffffffffffffffffffffffffffffffffffffffffffffffff82610b8c565b610bd18683610b8c565b95508019841693508086168417925050509392505050565b5f819050919050565b5f610c0c610c07610c0284610915565b610be9565b610915565b9050919050565b5f819050919050565b610c2583610bf2565b610c39610c3182610c13565b848454610b98565b825550505050565b5f90565b610c4d610c41565b610c58818484610c1c565b505050565b5b81811015610c7b57610c705f82610c45565b600181019050610c5e565b5050565b601f821115610cc057610c9181610b6b565b610c9a84610b7d565b81016020851015610ca9578190505b610cbd610cb585610b7d565b830182610c5d565b50505b505050565b5f82821c905092915050565b5f610ce05f1984600802610cc5565b1980831691505092915050565b5f610cf88383610cd1565b9150826002028217905092915050565b610d1182610ad7565b67ffffffffffffffff811115610d2a57610d29610ae1565b5b610d348254610b3b565b610d3f828285610c7f565b5f60209050601f831160018114610d70575f8415610d5e578287015190505b610d688582610ced565b865550610dcf565b601f198416610d7e86610b6b565b5f5b82811015610da557848901518255600182019150602085019450602081019050610d80565b86831015610dc25784890151610dbe601f891682610cd1565b8355505b6001600288020188555050505b505050505050565b7f50726f706f73616c206973206e6f7420616374697665000000000000000000005f82015250565b5f610e0b601683610a39565b9150610e1682610dd7565b602082019050919050565b5f6020820190508181035f830152610e3881610dff565b9050919050565b7f416464726573732068617320616c726561647920766f746564000000000000005f82015250565b5f610e73601983610a39565b9150610e7e82610e3f565b602082019050919050565b5f6020820190508181035f830152610ea081610e67565b9050919050565b7f4e487b71000000000000000000000000000000000000000000000000000000005f52601160045260245ffd5b5f610ede82610915565b9150610ee983610915565b9250828201905080821115610f0157610f00610ea7565b5b92915050565b5f610f1182610915565b9150610f1c83610915565b9250828203905081811115610f3457610f33610ea7565b5b92915050565b7f4e487b71000000000000000000000000000000000000000000000000000000005f52603260045260245ffd5b5f610f7182610915565b9150610f7c83610915565b9250828202610f8a81610915565b91508282048414831517610fa157610fa0610ea7565b5b509291505056fea264697066735822122091109f0d92776fb283434fa7d1aa0ecb186bc0934dccfc1d55de80beb4ab438664736f6c63430008160033",
					"opcodes": "PUSH1 0x80 PUSH1 0x40 MSTORE CALLVALUE DUP1 ISZERO PUSH2 0xF JUMPI PUSH0 DUP1 REVERT JUMPDEST POP CALLER PUSH0 DUP1 PUSH2 0x100 EXP DUP2 SLOAD DUP2 PUSH20 0xFFFFFFFFFFFFFFFFFFFFFFFFFFFFFFFFFFFFFFFF MUL NOT AND SWAP1 DUP4 PUSH20 0xFFFFFFFFFFFFFFFFFFFFFFFFFFFFFFFFFFFFFFFF AND MUL OR SWAP1 SSTORE POP PUSH1 0x3 CALLER SWAP1 DUP1 PUSH1 0x1 DUP2 SLOAD ADD DUP1 DUP3 SSTORE DUP1 SWAP2 POP POP PUSH1 0x1 SWAP1 SUB SWAP1 PUSH0 MSTORE PUSH1 0x20 PUSH0 KECCAK256 ADD PUSH0 SWAP1 SWAP2 SWAP1 SWAP2 SWAP1 SWAP2 PUSH2 0x100 EXP DUP2 SLOAD DUP2 PUSH20 0xFFFFFFFFFFFFFFFFFFFFFFFFFFFFFFFFFFFFFFFF MUL NOT AND SWAP1 DUP4 PUSH20 0xFFFFFFFFFFFFFFFFFFFFFFFFFFFFFFFFFFFFFFFF AND MUL OR SWAP1 SSTORE POP PUSH2 0xFDE DUP1 PUSH2 0xBC PUSH0 CODECOPY PUSH0 RETURN INVALID PUSH1 0x80 PUSH1 0x40 MSTORE CALLVALUE DUP1 ISZERO PUSH2 0xF JUMPI PUSH0 DUP1 REVERT JUMPDEST POP PUSH1 0x4 CALLDATASIZE LT PUSH2 0x4A JUMPI PUSH0 CALLDATALOAD PUSH1 0xE0 SHR DUP1 PUSH4 0x13AF4035 EQ PUSH2 0x4E JUMPI DUP1 PUSH4 0x46F81A87 EQ PUSH2 0x6A JUMPI DUP1 PUSH4 0xB3F98ADC EQ PUSH2 0x86 JUMPI DUP1 PUSH4 0xCBFF75CB EQ PUSH2 0xA2 JUMPI JUMPDEST PUSH0 DUP1 REVERT JUMPDEST PUSH2 0x68 PUSH1 0x4 DUP1 CALLDATASIZE SUB DUP2 ADD SWAP1 PUSH2 0x63 SWAP2 SWAP1 PUSH2 0x889 JUMP JUMPDEST PUSH2 0xD2 JUMP JUMPDEST STOP JUMPDEST PUSH2 0x84 PUSH1 0x4 DUP1 CALLDATASIZE SUB DUP2 ADD SWAP1 PUSH2 0x7F SWAP2 SWAP1 PUSH2 0x948 JUMP JUMPDEST PUSH2 0x1A1 JUMP JUMPDEST STOP JUMPDEST PUSH2 0xA0 PUSH1 0x4 DUP1 CALLDATASIZE SUB DUP2 ADD SWAP1 PUSH2 0x9B SWAP2 SWAP1 PUSH2 0x9DB JUMP JUMPDEST PUSH2 0x350 JUMP JUMPDEST STOP JUMPDEST PUSH2 0xBC PUSH1 0x4 DUP1 CALLDATASIZE SUB DUP2 ADD SWAP1 PUSH2 0xB7 SWAP2 SWAP1 PUSH2 0x889 JUMP JUMPDEST PUSH2 0x662 JUMP JUMPDEST PUSH1 0x40 MLOAD PUSH2 0xC9 SWAP2 SWAP1 PUSH2 0xA20 JUMP JUMPDEST PUSH1 0x40 MLOAD DUP1 SWAP2 SUB SWAP1 RETURN JUMPDEST PUSH0 DUP1 SLOAD SWAP1 PUSH2 0x100 EXP SWAP1 DIV PUSH20 0xFFFFFFFFFFFFFFFFFFFFFFFFFFFFFFFFFFFFFFFF AND PUSH20 0xFFFFFFFFFFFFFFFFFFFFFFFFFFFFFFFFFFFFFFFF AND CALLER PUSH20 0xFFFFFFFFFFFFFFFFFFFFFFFFFFFFFFFFFFFFFFFF AND EQ PUSH2 0x15F JUMPI PUSH1 0x40 MLOAD PUSH32 0x8C379A000000000000000000000000000000000000000000000000000000000 DUP2 MSTORE PUSH1 0x4 ADD PUSH2 0x156 SWAP1 PUSH2 0xAB9 JUMP JUMPDEST PUSH1 0x40 MLOAD DUP1 SWAP2 SUB SWAP1 REVERT JUMPDEST DUP1 PUSH0 DUP1 PUSH2 0x100 EXP DUP2 SLOAD DUP2 PUSH20 0xFFFFFFFFFFFFFFFFFFFFFFFFFFFFFFFFFFFFFFFF MUL NOT AND SWAP1 DUP4 PUSH20 0xFFFFFFFFFFFFFFFFFFFFFFFFFFFFFFFFFFFFFFFF AND MUL OR SWAP1 SSTORE POP POP JUMP JUMPDEST PUSH0 DUP1 SLOAD SWAP1 PUSH2 0x100 EXP SWAP1 DIV PUSH20 0xFFFFFFFFFFFFFFFFFFFFFFFFFFFFFFFFFFFFFFFF AND PUSH20 0xFFFFFFFFFFFFFFFFFFFFFFFFFFFFFFFFFFFFFFFF AND CALLER PUSH20 0xFFFFFFFFFFFFFFFFFFFFFFFFFFFFFFFFFFFFFFFF AND EQ PUSH2 0x22E JUMPI PUSH1 0x40 MLOAD PUSH32 0x8C379A000000000000000000000000000000000000000000000000000000000 DUP2 MSTORE PUSH1 0x4 ADD PUSH2 0x225 SWAP1 PUSH2 0xAB9 JUMP JUMPDEST PUSH1 0x40 MLOAD DUP1 SWAP2 SUB SWAP1 REVERT JUMPDEST PUSH2 0x238 PUSH1 0x1 PUSH2 0x704 JUMP JUMPDEST PUSH1 0x40 MLOAD DUP1 PUSH1 0xE0 ADD PUSH1 0x40 MSTORE DUP1 DUP5 DUP5 DUP1 DUP1 PUSH1 0x1F ADD PUSH1 0x20 DUP1 SWAP2 DIV MUL PUSH1 0x20 ADD PUSH1 0x40 MLOAD SWAP1 DUP2 ADD PUSH1 0x40 MSTORE DUP1 SWAP4 SWAP3 SWAP2 SWAP1 DUP2 DUP2 MSTORE PUSH1 0x20 ADD DUP4 DUP4 DUP1 DUP3 DUP5 CALLDATACOPY PUSH0 DUP2 DUP5 ADD MSTORE PUSH1 0x1F NOT PUSH1 0x1F DUP3 ADD AND SWAP1 POP DUP1 DUP4 ADD SWAP3 POP POP POP POP POP POP POP DUP2 MSTORE PUSH1 0x20 ADD PUSH0 DUP2 MSTORE PUSH1 0x20 ADD PUSH0 DUP2 MSTORE PUSH1 0x20 ADD PUSH0 DUP2 MSTORE PUSH1 0x20 ADD DUP3 DUP2 MSTORE PUSH1 0x20 ADD PUSH0 ISZERO ISZERO DUP2 MSTORE PUSH1 0x20 ADD PUSH1 0x1 ISZERO ISZERO DUP2 MSTORE POP PUSH1 0x2 PUSH0 PUSH2 0x2C0 PUSH1 0x1 PUSH2 0x718 JUMP JUMPDEST DUP2 MSTORE PUSH1 0x20 ADD SWAP1 DUP2 MSTORE PUSH1 0x20 ADD PUSH0 KECCAK256 PUSH0 DUP3 ADD MLOAD DUP2 PUSH0 ADD SWAP1 DUP2 PUSH2 0x2E0 SWAP2 SWAP1 PUSH2 0xD08 JUMP JUMPDEST POP PUSH1 0x20 DUP3 ADD MLOAD DUP2 PUSH1 0x1 ADD SSTORE PUSH1 0x40 DUP3 ADD MLOAD DUP2 PUSH1 0x2 ADD SSTORE PUSH1 0x60 DUP3 ADD MLOAD DUP2 PUSH1 0x3 ADD SSTORE PUSH1 0x80 DUP3 ADD MLOAD DUP2 PUSH1 0x4 ADD SSTORE PUSH1 0xA0 DUP3 ADD MLOAD DUP2 PUSH1 0x5 ADD PUSH0 PUSH2 0x100 EXP DUP2 SLOAD DUP2 PUSH1 0xFF MUL NOT AND SWAP1 DUP4 ISZERO ISZERO MUL OR SWAP1 SSTORE POP PUSH1 0xC0 DUP3 ADD MLOAD DUP2 PUSH1 0x5 ADD PUSH1 0x1 PUSH2 0x100 EXP DUP2 SLOAD DUP2 PUSH1 0xFF MUL NOT AND SWAP1 DUP4 ISZERO ISZERO MUL OR SWAP1 SSTORE POP SWAP1 POP POP POP POP POP JUMP JUMPDEST PUSH1 0x1 ISZERO ISZERO PUSH1 0x2 PUSH0 PUSH2 0x361 PUSH1 0x1 PUSH2 0x718 JUMP JUMPDEST DUP2 MSTORE PUSH1 0x20 ADD SWAP1 DUP2 MSTORE PUSH1 0x20 ADD PUSH0 KECCAK256 PUSH1 0x5 ADD PUSH1 0x1 SWAP1 SLOAD SWAP1 PUSH2 0x100 EXP SWAP1 DIV PUSH1 0xFF AND ISZERO ISZERO EQ PUSH2 0x3C1 JUMPI PUSH1 0x40 MLOAD PUSH32 0x8C379A000000000000000000000000000000000000000000000000000000000 DUP2 MSTORE PUSH1 0x4 ADD PUSH2 0x3B8 SWAP1 PUSH2 0xE21 JUMP JUMPDEST PUSH1 0x40 MLOAD DUP1 SWAP2 SUB SWAP1 REVERT JUMPDEST CALLER PUSH2 0x3CB DUP2 PUSH2 0x662 JUMP JUMPDEST ISZERO PUSH2 0x40B JUMPI PUSH1 0x40 MLOAD PUSH32 0x8C379A000000000000000000000000000000000000000000000000000000000 DUP2 MSTORE PUSH1 0x4 ADD PUSH2 0x402 SWAP1 PUSH2 0xE89 JUMP JUMPDEST PUSH1 0x40 MLOAD DUP1 SWAP2 SUB SWAP1 REVERT JUMPDEST PUSH0 PUSH1 0x2 PUSH0 PUSH2 0x419 PUSH1 0x1 PUSH2 0x718 JUMP JUMPDEST DUP2 MSTORE PUSH1 0x20 ADD SWAP1 DUP2 MSTORE PUSH1 0x20 ADD PUSH0 KECCAK256 SWAP1 POP PUSH0 DUP2 PUSH1 0x3 ADD SLOAD DUP3 PUSH1 0x2 ADD SLOAD DUP4 PUSH1 0x1 ADD SLOAD PUSH2 0x442 SWAP2 SWAP1 PUSH2 0xED4 JUMP JUMPDEST PUSH2 0x44C SWAP2 SWAP1 PUSH2 0xED4 JUMP JUMPDEST SWAP1 POP PUSH1 0x3 CALLER SWAP1 DUP1 PUSH1 0x1 DUP2 SLOAD ADD DUP1 DUP3 SSTORE DUP1 SWAP2 POP POP PUSH1 0x1 SWAP1 SUB SWAP1 PUSH0 MSTORE PUSH1 0x20 PUSH0 KECCAK256 ADD PUSH0 SWAP1 SWAP2 SWAP1 SWAP2 SWAP1 SWAP2 PUSH2 0x100 EXP DUP2 SLOAD DUP2 PUSH20 0xFFFFFFFFFFFFFFFFFFFFFFFFFFFFFFFFFFFFFFFF MUL NOT AND SWAP1 DUP4 PUSH20 0xFFFFFFFFFFFFFFFFFFFFFFFFFFFFFFFFFFFFFFFF AND MUL OR SWAP1 SSTORE POP PUSH1 0x1 DUP5 PUSH1 0xFF AND SUB PUSH2 0x4FB JUMPI PUSH1 0x1 DUP3 PUSH1 0x1 ADD PUSH0 DUP3 DUP3 SLOAD PUSH2 0x4CD SWAP2 SWAP1 PUSH2 0xED4 JUMP JUMPDEST SWAP3 POP POP DUP2 SWAP1 SSTORE POP PUSH2 0x4DC PUSH2 0x724 JUMP JUMPDEST DUP3 PUSH1 0x5 ADD PUSH0 PUSH2 0x100 EXP DUP2 SLOAD DUP2 PUSH1 0xFF MUL NOT AND SWAP1 DUP4 ISZERO ISZERO MUL OR SWAP1 SSTORE POP PUSH2 0x592 JUMP JUMPDEST PUSH1 0x2 DUP5 PUSH1 0xFF AND SUB PUSH2 0x548 JUMPI PUSH1 0x1 DUP3 PUSH1 0x2 ADD PUSH0 DUP3 DUP3 SLOAD PUSH2 0x51A SWAP2 SWAP1 PUSH2 0xED4 JUMP JUMPDEST SWAP3 POP POP DUP2 SWAP1 SSTORE POP PUSH2 0x529 PUSH2 0x724 JUMP JUMPDEST DUP3 PUSH1 0x5 ADD PUSH0 PUSH2 0x100 EXP DUP2 SLOAD DUP2 PUSH1 0xFF MUL NOT AND SWAP1 DUP4 ISZERO ISZERO MUL OR SWAP1 SSTORE POP PUSH2 0x591 JUMP JUMPDEST PUSH0 DUP5 PUSH1 0xFF AND SUB PUSH2 0x590 JUMPI PUSH1 0x1 DUP3 PUSH1 0x3 ADD PUSH0 DUP3 DUP3 SLOAD PUSH2 0x566 SWAP2 SWAP1 PUSH2 0xED4 JUMP JUMPDEST SWAP3 POP POP DUP2 SWAP1 SSTORE POP PUSH2 0x575 PUSH2 0x724 JUMP JUMPDEST DUP3 PUSH1 0x5 ADD PUSH0 PUSH2 0x100 EXP DUP2 SLOAD DUP2 PUSH1 0xFF MUL NOT AND SWAP1 DUP4 ISZERO ISZERO MUL OR SWAP1 SSTORE POP JUMPDEST JUMPDEST JUMPDEST PUSH1 0x1 DUP2 DUP4 PUSH1 0x4 ADD SLOAD PUSH2 0x5A4 SWAP2 SWAP1 PUSH2 0xF07 JUMP JUMPDEST EQ DUP1 ISZERO PUSH2 0x5CF JUMPI POP PUSH1 0x1 DUP5 PUSH1 0xFF AND EQ DUP1 PUSH2 0x5C1 JUMPI POP PUSH1 0x2 DUP5 PUSH1 0xFF AND EQ JUMPDEST DUP1 PUSH2 0x5CE JUMPI POP PUSH0 DUP5 PUSH1 0xFF AND EQ JUMPDEST JUMPDEST ISZERO PUSH2 0x65C JUMPI PUSH0 DUP3 PUSH1 0x5 ADD PUSH1 0x1 PUSH2 0x100 EXP DUP2 SLOAD DUP2 PUSH1 0xFF MUL NOT AND SWAP1 DUP4 ISZERO ISZERO MUL OR SWAP1 SSTORE POP PUSH1 0x40 MLOAD DUP1 PUSH1 0x20 ADD PUSH1 0x40 MSTORE DUP1 PUSH0 DUP1 SLOAD SWAP1 PUSH2 0x100 EXP SWAP1 DIV PUSH20 0xFFFFFFFFFFFFFFFFFFFFFFFFFFFFFFFFFFFFFFFF AND PUSH20 0xFFFFFFFFFFFFFFFFFFFFFFFFFFFFFFFFFFFFFFFF AND PUSH20 0xFFFFFFFFFFFFFFFFFFFFFFFFFFFFFFFFFFFFFFFF AND DUP2 MSTORE POP PUSH1 0x3 SWAP1 PUSH1 0x1 PUSH2 0x65A SWAP3 SWAP2 SWAP1 PUSH2 0x785 JUMP JUMPDEST POP JUMPDEST POP POP POP POP JUMP JUMPDEST PUSH0 DUP1 PUSH0 SWAP1 POP JUMPDEST PUSH1 0x3 DUP1 SLOAD SWAP1 POP DUP2 LT ISZERO PUSH2 0x6FA JUMPI DUP3 PUSH20 0xFFFFFFFFFFFFFFFFFFFFFFFFFFFFFFFFFFFFFFFF AND PUSH1 0x3 DUP3 DUP2 SLOAD DUP2 LT PUSH2 0x6A0 JUMPI PUSH2 0x69F PUSH2 0xF3A JUMP JUMPDEST JUMPDEST SWAP1 PUSH0 MSTORE PUSH1 0x20 PUSH0 KECCAK256 ADD PUSH0 SWAP1 SLOAD SWAP1 PUSH2 0x100 EXP SWAP1 DIV PUSH20 0xFFFFFFFFFFFFFFFFFFFFFFFFFFFFFFFFFFFFFFFF AND PUSH20 0xFFFFFFFFFFFFFFFFFFFFFFFFFFFFFFFFFFFFFFFF AND SUB PUSH2 0x6ED JUMPI PUSH1 0x1 SWAP2 POP POP PUSH2 0x6FF JUMP JUMPDEST DUP1 DUP1 PUSH1 0x1 ADD SWAP2 POP POP PUSH2 0x668 JUMP JUMPDEST POP PUSH0 SWAP1 POP JUMPDEST SWAP2 SWAP1 POP JUMP JUMPDEST PUSH1 0x1 DUP2 PUSH0 ADD PUSH0 DUP3 DUP3 SLOAD ADD SWAP3 POP POP DUP2 SWAP1 SSTORE POP POP JUMP JUMPDEST PUSH0 DUP2 PUSH0 ADD SLOAD SWAP1 POP SWAP2 SWAP1 POP JUMP JUMPDEST PUSH0 DUP1 PUSH1 0x2 PUSH0 PUSH2 0x733 PUSH1 0x1 PUSH2 0x718 JUMP JUMPDEST DUP2 MSTORE PUSH1 0x20 ADD SWAP1 DUP2 MSTORE PUSH1 0x20 ADD PUSH0 KECCAK256 SWAP1 POP PUSH0 DUP2 PUSH1 0x1 ADD SLOAD SWAP1 POP PUSH0 DUP3 PUSH1 0x2 ADD SLOAD SWAP1 POP PUSH0 DUP4 PUSH1 0x3 ADD SLOAD SWAP1 POP DUP2 PUSH1 0x2 PUSH2 0x767 SWAP2 SWAP1 PUSH2 0xF67 JUMP JUMPDEST DUP4 LT PUSH2 0x77A JUMPI PUSH1 0x1 SWAP5 POP POP POP POP POP PUSH2 0x782 JUMP JUMPDEST PUSH0 SWAP5 POP POP POP POP POP JUMPDEST SWAP1 JUMP JUMPDEST DUP3 DUP1 SLOAD DUP3 DUP3 SSTORE SWAP1 PUSH0 MSTORE PUSH1 0x20 PUSH0 KECCAK256 SWAP1 DUP2 ADD SWAP3 DUP3 ISZERO PUSH2 0x7FB JUMPI SWAP2 PUSH1 0x20 MUL DUP3 ADD JUMPDEST DUP3 DUP2 GT ISZERO PUSH2 0x7FA JUMPI DUP3 MLOAD DUP3 PUSH0 PUSH2 0x100 EXP DUP2 SLOAD DUP2 PUSH20 0xFFFFFFFFFFFFFFFFFFFFFFFFFFFFFFFFFFFFFFFF MUL NOT AND SWAP1 DUP4 PUSH20 0xFFFFFFFFFFFFFFFFFFFFFFFFFFFFFFFFFFFFFFFF AND MUL OR SWAP1 SSTORE POP SWAP2 PUSH1 0x20 ADD SWAP2 SWAP1 PUSH1 0x1 ADD SWAP1 PUSH2 0x7A3 JUMP JUMPDEST JUMPDEST POP SWAP1 POP PUSH2 0x808 SWAP2 SWAP1 PUSH2 0x80C JUMP JUMPDEST POP SWAP1 JUMP JUMPDEST JUMPDEST DUP1 DUP3 GT ISZERO PUSH2 0x823 JUMPI PUSH0 DUP2 PUSH0 SWAP1 SSTORE POP PUSH1 0x1 ADD PUSH2 0x80D JUMP JUMPDEST POP SWAP1 JUMP JUMPDEST PUSH0 DUP1 REVERT JUMPDEST PUSH0 DUP1 REVERT JUMPDEST PUSH0 PUSH20 0xFFFFFFFFFFFFFFFFFFFFFFFFFFFFFFFFFFFFFFFF DUP3 AND SWAP1 POP SWAP2 SWAP1 POP JUMP JUMPDEST PUSH0 PUSH2 0x858 DUP3 PUSH2 0x82F JUMP JUMPDEST SWAP1 POP SWAP2 SWAP1 POP JUMP JUMPDEST PUSH2 0x868 DUP2 PUSH2 0x84E JUMP JUMPDEST DUP2 EQ PUSH2 0x872 JUMPI PUSH0 DUP1 REVERT JUMPDEST POP JUMP JUMPDEST PUSH0 DUP2 CALLDATALOAD SWAP1 POP PUSH2 0x883 DUP2 PUSH2 0x85F JUMP JUMPDEST SWAP3 SWAP2 POP POP JUMP JUMPDEST PUSH0 PUSH1 0x20 DUP3 DUP5 SUB SLT ISZERO PUSH2 0x89E JUMPI PUSH2 0x89D PUSH2 0x827 JUMP JUMPDEST JUMPDEST PUSH0 PUSH2 0x8AB DUP5 DUP3 DUP6 ADD PUSH2 0x875 JUMP JUMPDEST SWAP2 POP POP SWAP3 SWAP2 POP POP JUMP JUMPDEST PUSH0 DUP1 REVERT JUMPDEST PUSH0 DUP1 REVERT JUMPDEST PUSH0 DUP1 REVERT JUMPDEST PUSH0 DUP1 DUP4 PUSH1 0x1F DUP5 ADD SLT PUSH2 0x8D5 JUMPI PUSH2 0x8D4 PUSH2 0x8B4 JUMP JUMPDEST JUMPDEST DUP3 CALLDATALOAD SWAP1 POP PUSH8 0xFFFFFFFFFFFFFFFF DUP2 GT ISZERO PUSH2 0x8F2 JUMPI PUSH2 0x8F1 PUSH2 0x8B8 JUMP JUMPDEST JUMPDEST PUSH1 0x20 DUP4 ADD SWAP2 POP DUP4 PUSH1 0x1 DUP3 MUL DUP4 ADD GT ISZERO PUSH2 0x90E JUMPI PUSH2 0x90D PUSH2 0x8BC JUMP JUMPDEST JUMPDEST SWAP3 POP SWAP3 SWAP1 POP JUMP JUMPDEST PUSH0 DUP2 SWAP1 POP SWAP2 SWAP1 POP JUMP JUMPDEST PUSH2 0x927 DUP2 PUSH2 0x915 JUMP JUMPDEST DUP2 EQ PUSH2 0x931 JUMPI PUSH0 DUP1 REVERT JUMPDEST POP JUMP JUMPDEST PUSH0 DUP2 CALLDATALOAD SWAP1 POP PUSH2 0x942 DUP2 PUSH2 0x91E JUMP JUMPDEST SWAP3 SWAP2 POP POP JUMP JUMPDEST PUSH0 DUP1 PUSH0 PUSH1 0x40 DUP5 DUP7 SUB SLT ISZERO PUSH2 0x95F JUMPI PUSH2 0x95E PUSH2 0x827 JUMP JUMPDEST JUMPDEST PUSH0 DUP5 ADD CALLDATALOAD PUSH8 0xFFFFFFFFFFFFFFFF DUP2 GT ISZERO PUSH2 0x97C JUMPI PUSH2 0x97B PUSH2 0x82B JUMP JUMPDEST JUMPDEST PUSH2 0x988 DUP7 DUP3 DUP8 ADD PUSH2 0x8C0 JUMP JUMPDEST SWAP4 POP SWAP4 POP POP PUSH1 0x20 PUSH2 0x99B DUP7 DUP3 DUP8 ADD PUSH2 0x934 JUMP JUMPDEST SWAP2 POP POP SWAP3 POP SWAP3 POP SWAP3 JUMP JUMPDEST PUSH0 PUSH1 0xFF DUP3 AND SWAP1 POP SWAP2 SWAP1 POP JUMP JUMPDEST PUSH2 0x9BA DUP2 PUSH2 0x9A5 JUMP JUMPDEST DUP2 EQ PUSH2 0x9C4 JUMPI PUSH0 DUP1 REVERT JUMPDEST POP JUMP JUMPDEST PUSH0 DUP2 CALLDATALOAD SWAP1 POP PUSH2 0x9D5 DUP2 PUSH2 0x9B1 JUMP JUMPDEST SWAP3 SWAP2 POP POP JUMP JUMPDEST PUSH0 PUSH1 0x20 DUP3 DUP5 SUB SLT ISZERO PUSH2 0x9F0 JUMPI PUSH2 0x9EF PUSH2 0x827 JUMP JUMPDEST JUMPDEST PUSH0 PUSH2 0x9FD DUP5 DUP3 DUP6 ADD PUSH2 0x9C7 JUMP JUMPDEST SWAP2 POP POP SWAP3 SWAP2 POP POP JUMP JUMPDEST PUSH0 DUP2 ISZERO ISZERO SWAP1 POP SWAP2 SWAP1 POP JUMP JUMPDEST PUSH2 0xA1A DUP2 PUSH2 0xA06 JUMP JUMPDEST DUP3 MSTORE POP POP JUMP JUMPDEST PUSH0 PUSH1 0x20 DUP3 ADD SWAP1 POP PUSH2 0xA33 PUSH0 DUP4 ADD DUP5 PUSH2 0xA11 JUMP JUMPDEST SWAP3 SWAP2 POP POP JUMP JUMPDEST PUSH0 DUP3 DUP3 MSTORE PUSH1 0x20 DUP3 ADD SWAP1 POP SWAP3 SWAP2 POP POP JUMP JUMPDEST PUSH32 0x4F6E6C7920746865206F776E65722063616E2063616C6C20746869732066756E PUSH0 DUP3 ADD MSTORE PUSH32 0x6374696F6E000000000000000000000000000000000000000000000000000000 PUSH1 0x20 DUP3 ADD MSTORE POP JUMP JUMPDEST PUSH0 PUSH2 0xAA3 PUSH1 0x25 DUP4 PUSH2 0xA39 JUMP JUMPDEST SWAP2 POP PUSH2 0xAAE DUP3 PUSH2 0xA49 JUMP JUMPDEST PUSH1 0x40 DUP3 ADD SWAP1 POP SWAP2 SWAP1 POP JUMP JUMPDEST PUSH0 PUSH1 0x20 DUP3 ADD SWAP1 POP DUP2 DUP2 SUB PUSH0 DUP4 ADD MSTORE PUSH2 0xAD0 DUP2 PUSH2 0xA97 JUMP JUMPDEST SWAP1 POP SWAP2 SWAP1 POP JUMP JUMPDEST PUSH0 DUP2 MLOAD SWAP1 POP SWAP2 SWAP1 POP JUMP JUMPDEST PUSH32 0x4E487B7100000000000000000000000000000000000000000000000000000000 PUSH0 MSTORE PUSH1 0x41 PUSH1 0x4 MSTORE PUSH1 0x24 PUSH0 REVERT JUMPDEST PUSH32 0x4E487B7100000000000000000000000000000000000000000000000000000000 PUSH0 MSTORE PUSH1 0x22 PUSH1 0x4 MSTORE PUSH1 0x24 PUSH0 REVERT JUMPDEST PUSH0 PUSH1 0x2 DUP3 DIV SWAP1 POP PUSH1 0x1 DUP3 AND DUP1 PUSH2 0xB52 JUMPI PUSH1 0x7F DUP3 AND SWAP2 POP JUMPDEST PUSH1 0x20 DUP3 LT DUP2 SUB PUSH2 0xB65 JUMPI PUSH2 0xB64 PUSH2 0xB0E JUMP JUMPDEST JUMPDEST POP SWAP2 SWAP1 POP JUMP JUMPDEST PUSH0 DUP2 SWAP1 POP DUP2 PUSH0 MSTORE PUSH1 0x20 PUSH0 KECCAK256 SWAP1 POP SWAP2 SWAP1 POP JUMP JUMPDEST PUSH0 PUSH1 0x20 PUSH1 0x1F DUP4 ADD DIV SWAP1 POP SWAP2 SWAP1 POP JUMP JUMPDEST PUSH0 DUP3 DUP3 SHL SWAP1 POP SWAP3 SWAP2 POP POP JUMP JUMPDEST PUSH0 PUSH1 0x8 DUP4 MUL PUSH2 0xBC7 PUSH32 0xFFFFFFFFFFFFFFFFFFFFFFFFFFFFFFFFFFFFFFFFFFFFFFFFFFFFFFFFFFFFFFFF DUP3 PUSH2 0xB8C JUMP JUMPDEST PUSH2 0xBD1 DUP7 DUP4 PUSH2 0xB8C JUMP JUMPDEST SWAP6 POP DUP1 NOT DUP5 AND SWAP4 POP DUP1 DUP7 AND DUP5 OR SWAP3 POP POP POP SWAP4 SWAP3 POP POP POP JUMP JUMPDEST PUSH0 DUP2 SWAP1 POP SWAP2 SWAP1 POP JUMP JUMPDEST PUSH0 PUSH2 0xC0C PUSH2 0xC07 PUSH2 0xC02 DUP5 PUSH2 0x915 JUMP JUMPDEST PUSH2 0xBE9 JUMP JUMPDEST PUSH2 0x915 JUMP JUMPDEST SWAP1 POP SWAP2 SWAP1 POP JUMP JUMPDEST PUSH0 DUP2 SWAP1 POP SWAP2 SWAP1 POP JUMP JUMPDEST PUSH2 0xC25 DUP4 PUSH2 0xBF2 JUMP JUMPDEST PUSH2 0xC39 PUSH2 0xC31 DUP3 PUSH2 0xC13 JUMP JUMPDEST DUP5 DUP5 SLOAD PUSH2 0xB98 JUMP JUMPDEST DUP3 SSTORE POP POP POP POP JUMP JUMPDEST PUSH0 SWAP1 JUMP JUMPDEST PUSH2 0xC4D PUSH2 0xC41 JUMP JUMPDEST PUSH2 0xC58 DUP2 DUP5 DUP5 PUSH2 0xC1C JUMP JUMPDEST POP POP POP JUMP JUMPDEST JUMPDEST DUP2 DUP2 LT ISZERO PUSH2 0xC7B JUMPI PUSH2 0xC70 PUSH0 DUP3 PUSH2 0xC45 JUMP JUMPDEST PUSH1 0x1 DUP2 ADD SWAP1 POP PUSH2 0xC5E JUMP JUMPDEST POP POP JUMP JUMPDEST PUSH1 0x1F DUP3 GT ISZERO PUSH2 0xCC0 JUMPI PUSH2 0xC91 DUP2 PUSH2 0xB6B JUMP JUMPDEST PUSH2 0xC9A DUP5 PUSH2 0xB7D JUMP JUMPDEST DUP2 ADD PUSH1 0x20 DUP6 LT ISZERO PUSH2 0xCA9 JUMPI DUP2 SWAP1 POP JUMPDEST PUSH2 0xCBD PUSH2 0xCB5 DUP6 PUSH2 0xB7D JUMP JUMPDEST DUP4 ADD DUP3 PUSH2 0xC5D JUMP JUMPDEST POP POP JUMPDEST POP POP POP JUMP JUMPDEST PUSH0 DUP3 DUP3 SHR SWAP1 POP SWAP3 SWAP2 POP POP JUMP JUMPDEST PUSH0 PUSH2 0xCE0 PUSH0 NOT DUP5 PUSH1 0x8 MUL PUSH2 0xCC5 JUMP JUMPDEST NOT DUP1 DUP4 AND SWAP2 POP POP SWAP3 SWAP2 POP POP JUMP JUMPDEST PUSH0 PUSH2 0xCF8 DUP4 DUP4 PUSH2 0xCD1 JUMP JUMPDEST SWAP2 POP DUP3 PUSH1 0x2 MUL DUP3 OR SWAP1 POP SWAP3 SWAP2 POP POP JUMP JUMPDEST PUSH2 0xD11 DUP3 PUSH2 0xAD7 JUMP JUMPDEST PUSH8 0xFFFFFFFFFFFFFFFF DUP2 GT ISZERO PUSH2 0xD2A JUMPI PUSH2 0xD29 PUSH2 0xAE1 JUMP JUMPDEST JUMPDEST PUSH2 0xD34 DUP3 SLOAD PUSH2 0xB3B JUMP JUMPDEST PUSH2 0xD3F DUP3 DUP3 DUP6 PUSH2 0xC7F JUMP JUMPDEST PUSH0 PUSH1 0x20 SWAP1 POP PUSH1 0x1F DUP4 GT PUSH1 0x1 DUP2 EQ PUSH2 0xD70 JUMPI PUSH0 DUP5 ISZERO PUSH2 0xD5E JUMPI DUP3 DUP8 ADD MLOAD SWAP1 POP JUMPDEST PUSH2 0xD68 DUP6 DUP3 PUSH2 0xCED JUMP JUMPDEST DUP7 SSTORE POP PUSH2 0xDCF JUMP JUMPDEST PUSH1 0x1F NOT DUP5 AND PUSH2 0xD7E DUP7 PUSH2 0xB6B JUMP JUMPDEST PUSH0 JUMPDEST DUP3 DUP2 LT ISZERO PUSH2 0xDA5 JUMPI DUP5 DUP10 ADD MLOAD DUP3 SSTORE PUSH1 0x1 DUP3 ADD SWAP2 POP PUSH1 0x20 DUP6 ADD SWAP5 POP PUSH1 0x20 DUP2 ADD SWAP1 POP PUSH2 0xD80 JUMP JUMPDEST DUP7 DUP4 LT ISZERO PUSH2 0xDC2 JUMPI DUP5 DUP10 ADD MLOAD PUSH2 0xDBE PUSH1 0x1F DUP10 AND DUP3 PUSH2 0xCD1 JUMP JUMPDEST DUP4 SSTORE POP JUMPDEST PUSH1 0x1 PUSH1 0x2 DUP9 MUL ADD DUP9 SSTORE POP POP POP JUMPDEST POP POP POP POP POP POP JUMP JUMPDEST PUSH32 0x50726F706F73616C206973206E6F742061637469766500000000000000000000 PUSH0 DUP3 ADD MSTORE POP JUMP JUMPDEST PUSH0 PUSH2 0xE0B PUSH1 0x16 DUP4 PUSH2 0xA39 JUMP JUMPDEST SWAP2 POP PUSH2 0xE16 DUP3 PUSH2 0xDD7 JUMP JUMPDEST PUSH1 0x20 DUP3 ADD SWAP1 POP SWAP2 SWAP1 POP JUMP JUMPDEST PUSH0 PUSH1 0x20 DUP3 ADD SWAP1 POP DUP2 DUP2 SUB PUSH0 DUP4 ADD MSTORE PUSH2 0xE38 DUP2 PUSH2 0xDFF JUMP JUMPDEST SWAP1 POP SWAP2 SWAP1 POP JUMP JUMPDEST PUSH32 0x416464726573732068617320616C726561647920766F74656400000000000000 PUSH0 DUP3 ADD MSTORE POP JUMP JUMPDEST PUSH0 PUSH2 0xE73 PUSH1 0x19 DUP4 PUSH2 0xA39 JUMP JUMPDEST SWAP2 POP PUSH2 0xE7E DUP3 PUSH2 0xE3F JUMP JUMPDEST PUSH1 0x20 DUP3 ADD SWAP1 POP SWAP2 SWAP1 POP JUMP JUMPDEST PUSH0 PUSH1 0x20 DUP3 ADD SWAP1 POP DUP2 DUP2 SUB PUSH0 DUP4 ADD MSTORE PUSH2 0xEA0 DUP2 PUSH2 0xE67 JUMP JUMPDEST SWAP1 POP SWAP2 SWAP1 POP JUMP JUMPDEST PUSH32 0x4E487B7100000000000000000000000000000000000000000000000000000000 PUSH0 MSTORE PUSH1 0x11 PUSH1 0x4 MSTORE PUSH1 0x24 PUSH0 REVERT JUMPDEST PUSH0 PUSH2 0xEDE DUP3 PUSH2 0x915 JUMP JUMPDEST SWAP2 POP PUSH2 0xEE9 DUP4 PUSH2 0x915 JUMP JUMPDEST SWAP3 POP DUP3 DUP3 ADD SWAP1 POP DUP1 DUP3 GT ISZERO PUSH2 0xF01 JUMPI PUSH2 0xF00 PUSH2 0xEA7 JUMP JUMPDEST JUMPDEST SWAP3 SWAP2 POP POP JUMP JUMPDEST PUSH0 PUSH2 0xF11 DUP3 PUSH2 0x915 JUMP JUMPDEST SWAP2 POP PUSH2 0xF1C DUP4 PUSH2 0x915 JUMP JUMPDEST SWAP3 POP DUP3 DUP3 SUB SWAP1 POP DUP2 DUP2 GT ISZERO PUSH2 0xF34 JUMPI PUSH2 0xF33 PUSH2 0xEA7 JUMP JUMPDEST JUMPDEST SWAP3 SWAP2 POP POP JUMP JUMPDEST PUSH32 0x4E487B7100000000000000000000000000000000000000000000000000000000 PUSH0 MSTORE PUSH1 0x32 PUSH1 0x4 MSTORE PUSH1 0x24 PUSH0 REVERT JUMPDEST PUSH0 PUSH2 0xF71 DUP3 PUSH2 0x915 JUMP JUMPDEST SWAP2 POP PUSH2 0xF7C DUP4 PUSH2 0x915 JUMP JUMPDEST SWAP3 POP DUP3 DUP3 MUL PUSH2 0xF8A DUP2 PUSH2 0x915 JUMP JUMPDEST SWAP2 POP DUP3 DUP3 DIV DUP5 EQ DUP4 ISZERO OR PUSH2 0xFA1 JUMPI PUSH2 0xFA0 PUSH2 0xEA7 JUMP JUMPDEST JUMPDEST POP SWAP3 SWAP2 POP POP JUMP INVALID LOG2 PUSH5 0x6970667358 0x22 SLT KECCAK256 SWAP2 LT SWAP16 0xD SWAP3 PUSH24 0x6FB283434FA7D1AA0ECB186BC0934DCCFC1D55DE80BEB4AB NUMBER DUP7 PUSH5 0x736F6C6343 STOP ADDMOD AND STOP CALLER "
				},
				"gasEstimates": {
					"creation": {
						"codeDepositCost": "812400",
						"executionCost": "73682",
						"totalCost": "886082"
					},
					"external": {
						"create(string,uint256)": "infinite",
						"isVoted(address)": "infinite",
						"setOwner(address)": "26859",
						"vote(uint8)": "infinite"
					},
					"internal": {
						"calculateCurrentState()": "infinite"
					}
				},
				"methodIdentifiers": {
					"create(string,uint256)": "46f81a87",
					"isVoted(address)": "cbff75cb",
					"setOwner(address)": "13af4035",
					"vote(uint8)": "b3f98adc"
				}
			},
			"storageLayout": {
				"storage": [
					{
						"astId": 78,
						"contract": "contracts/RiseIn.sol:ProposalContract",
						"label": "owner",
						"offset": 0,
						"slot": "0",
						"type": "t_address"
					},
					{
						"astId": 85,
						"contract": "contracts/RiseIn.sol:ProposalContract",
						"label": "_counter",
						"offset": 0,
						"slot": "1",
						"type": "t_struct(Counter)5_storage"
					},
					{
						"astId": 105,
						"contract": "contracts/RiseIn.sol:ProposalContract",
						"label": "proposal_history",
						"offset": 0,
						"slot": "2",
						"type": "t_mapping(t_uint256,t_struct(Proposal)100_storage)"
					},
					{
						"astId": 108,
						"contract": "contracts/RiseIn.sol:ProposalContract",
						"label": "voted_addresses",
						"offset": 0,
						"slot": "3",
						"type": "t_array(t_address)dyn_storage"
					}
				],
				"types": {
					"t_address": {
						"encoding": "inplace",
						"label": "address",
						"numberOfBytes": "20"
					},
					"t_array(t_address)dyn_storage": {
						"base": "t_address",
						"encoding": "dynamic_array",
						"label": "address[]",
						"numberOfBytes": "32"
					},
					"t_bool": {
						"encoding": "inplace",
						"label": "bool",
						"numberOfBytes": "1"
					},
					"t_mapping(t_uint256,t_struct(Proposal)100_storage)": {
						"encoding": "mapping",
						"key": "t_uint256",
						"label": "mapping(uint256 => struct ProposalContract.Proposal)",
						"numberOfBytes": "32",
						"value": "t_struct(Proposal)100_storage"
					},
					"t_string_storage": {
						"encoding": "bytes",
						"label": "string",
						"numberOfBytes": "32"
					},
					"t_struct(Counter)5_storage": {
						"encoding": "inplace",
						"label": "struct Counters.Counter",
						"members": [
							{
								"astId": 4,
								"contract": "contracts/RiseIn.sol:ProposalContract",
								"label": "_value",
								"offset": 0,
								"slot": "0",
								"type": "t_uint256"
							}
						],
						"numberOfBytes": "32"
					},
					"t_struct(Proposal)100_storage": {
						"encoding": "inplace",
						"label": "struct ProposalContract.Proposal",
						"members": [
							{
								"astId": 87,
								"contract": "contracts/RiseIn.sol:ProposalContract",
								"label": "description",
								"offset": 0,
								"slot": "0",
								"type": "t_string_storage"
							},
							{
								"astId": 89,
								"contract": "contracts/RiseIn.sol:ProposalContract",
								"label": "approve",
								"offset": 0,
								"slot": "1",
								"type": "t_uint256"
							},
							{
								"astId": 91,
								"contract": "contracts/RiseIn.sol:ProposalContract",
								"label": "reject",
								"offset": 0,
								"slot": "2",
								"type": "t_uint256"
							},
							{
								"astId": 93,
								"contract": "contracts/RiseIn.sol:ProposalContract",
								"label": "pass",
								"offset": 0,
								"slot": "3",
								"type": "t_uint256"
							},
							{
								"astId": 95,
								"contract": "contracts/RiseIn.sol:ProposalContract",
								"label": "total_vote_to_end",
								"offset": 0,
								"slot": "4",
								"type": "t_uint256"
							},
							{
								"astId": 97,
								"contract": "contracts/RiseIn.sol:ProposalContract",
								"label": "current_state",
								"offset": 0,
								"slot": "5",
								"type": "t_bool"
							},
							{
								"astId": 99,
								"contract": "contracts/RiseIn.sol:ProposalContract",
								"label": "is_active",
								"offset": 1,
								"slot": "5",
								"type": "t_bool"
							}
						],
						"numberOfBytes": "192"
					},
					"t_uint256": {
						"encoding": "inplace",
						"label": "uint256",
						"numberOfBytes": "32"
					}
				}
			},
			"userdoc": {
				"kind": "user",
				"methods": {},
				"version": 1
			}
		}
	}
}